{
  "_format": "hh-sol-artifact-1",
  "contractName": "ERC1155Token",
  "sourceName": "contracts/legit/ERC1155Token.sol",
  "abi": [
    {
      "inputs": [
        {
          "internalType": "address",
          "name": "default_owner",
          "type": "address"
        },
        {
          "internalType": "string",
          "name": "_dataUri",
          "type": "string"
        },
        {
          "internalType": "contract MinimalForwarder",
          "name": "forwarder",
          "type": "address"
        }
      ],
      "stateMutability": "nonpayable",
      "type": "constructor"
    },
    {
      "anonymous": false,
      "inputs": [
        {
          "indexed": true,
          "internalType": "address",
          "name": "account",
          "type": "address"
        },
        {
          "indexed": true,
          "internalType": "address",
          "name": "operator",
          "type": "address"
        },
        {
          "indexed": false,
          "internalType": "bool",
          "name": "approved",
          "type": "bool"
        }
      ],
      "name": "ApprovalForAll",
      "type": "event"
    },
    {
      "anonymous": false,
      "inputs": [
        {
          "indexed": true,
          "internalType": "address",
          "name": "previousOwner",
          "type": "address"
        },
        {
          "indexed": true,
          "internalType": "address",
          "name": "newOwner",
          "type": "address"
        }
      ],
      "name": "OwnershipTransferred",
      "type": "event"
    },
    {
      "anonymous": false,
      "inputs": [
        {
          "indexed": true,
          "internalType": "bytes32",
          "name": "role",
          "type": "bytes32"
        },
        {
          "indexed": true,
          "internalType": "bytes32",
          "name": "previousAdminRole",
          "type": "bytes32"
        },
        {
          "indexed": true,
          "internalType": "bytes32",
          "name": "newAdminRole",
          "type": "bytes32"
        }
      ],
      "name": "RoleAdminChanged",
      "type": "event"
    },
    {
      "anonymous": false,
      "inputs": [
        {
          "indexed": true,
          "internalType": "bytes32",
          "name": "role",
          "type": "bytes32"
        },
        {
          "indexed": true,
          "internalType": "address",
          "name": "account",
          "type": "address"
        },
        {
          "indexed": true,
          "internalType": "address",
          "name": "sender",
          "type": "address"
        }
      ],
      "name": "RoleGranted",
      "type": "event"
    },
    {
      "anonymous": false,
      "inputs": [
        {
          "indexed": true,
          "internalType": "bytes32",
          "name": "role",
          "type": "bytes32"
        },
        {
          "indexed": true,
          "internalType": "address",
          "name": "account",
          "type": "address"
        },
        {
          "indexed": true,
          "internalType": "address",
          "name": "sender",
          "type": "address"
        }
      ],
      "name": "RoleRevoked",
      "type": "event"
    },
    {
      "anonymous": false,
      "inputs": [
        {
          "indexed": true,
          "internalType": "address",
          "name": "operator",
          "type": "address"
        },
        {
          "indexed": true,
          "internalType": "address",
          "name": "from",
          "type": "address"
        },
        {
          "indexed": true,
          "internalType": "address",
          "name": "to",
          "type": "address"
        },
        {
          "indexed": false,
          "internalType": "uint256[]",
          "name": "ids",
          "type": "uint256[]"
        },
        {
          "indexed": false,
          "internalType": "uint256[]",
          "name": "values",
          "type": "uint256[]"
        }
      ],
      "name": "TransferBatch",
      "type": "event"
    },
    {
      "anonymous": false,
      "inputs": [
        {
          "indexed": true,
          "internalType": "address",
          "name": "operator",
          "type": "address"
        },
        {
          "indexed": true,
          "internalType": "address",
          "name": "from",
          "type": "address"
        },
        {
          "indexed": true,
          "internalType": "address",
          "name": "to",
          "type": "address"
        },
        {
          "indexed": false,
          "internalType": "uint256",
          "name": "id",
          "type": "uint256"
        },
        {
          "indexed": false,
          "internalType": "uint256",
          "name": "value",
          "type": "uint256"
        }
      ],
      "name": "TransferSingle",
      "type": "event"
    },
    {
      "anonymous": false,
      "inputs": [
        {
          "indexed": false,
          "internalType": "string",
          "name": "value",
          "type": "string"
        },
        {
          "indexed": true,
          "internalType": "uint256",
          "name": "id",
          "type": "uint256"
        }
      ],
      "name": "URI",
      "type": "event"
    },
    {
      "inputs": [],
      "name": "BURNER_ROLE",
      "outputs": [
        {
          "internalType": "bytes32",
          "name": "",
          "type": "bytes32"
        }
      ],
      "stateMutability": "view",
      "type": "function"
    },
    {
      "inputs": [],
      "name": "DEFAULT_ADMIN_ROLE",
      "outputs": [
        {
          "internalType": "bytes32",
          "name": "",
          "type": "bytes32"
        }
      ],
      "stateMutability": "view",
      "type": "function"
    },
    {
      "inputs": [
        {
          "internalType": "address[]",
          "name": "burners",
          "type": "address[]"
        }
      ],
      "name": "addBurners",
      "outputs": [],
      "stateMutability": "nonpayable",
      "type": "function"
    },
    {
      "inputs": [
        {
          "internalType": "address[]",
          "name": "minters",
          "type": "address[]"
        }
      ],
      "name": "addMinters",
      "outputs": [],
      "stateMutability": "nonpayable",
      "type": "function"
    },
    {
      "inputs": [
        {
          "internalType": "address",
          "name": "account",
          "type": "address"
        },
        {
          "internalType": "uint256",
          "name": "id",
          "type": "uint256"
        }
      ],
      "name": "balanceOf",
      "outputs": [
        {
          "internalType": "uint256",
          "name": "",
          "type": "uint256"
        }
      ],
      "stateMutability": "view",
      "type": "function"
    },
    {
      "inputs": [
        {
          "internalType": "address[]",
          "name": "accounts",
          "type": "address[]"
        },
        {
          "internalType": "uint256[]",
          "name": "ids",
          "type": "uint256[]"
        }
      ],
      "name": "balanceOfBatch",
      "outputs": [
        {
          "internalType": "uint256[]",
          "name": "",
          "type": "uint256[]"
        }
      ],
      "stateMutability": "view",
      "type": "function"
    },
    {
      "inputs": [
        {
          "internalType": "address",
          "name": "account",
          "type": "address"
        },
        {
          "internalType": "uint256",
          "name": "tokenId",
          "type": "uint256"
        },
        {
          "internalType": "uint256",
          "name": "value",
          "type": "uint256"
        }
      ],
      "name": "burn",
      "outputs": [],
      "stateMutability": "nonpayable",
      "type": "function"
    },
    {
      "inputs": [
        {
          "internalType": "address",
          "name": "account",
          "type": "address"
        },
        {
          "internalType": "uint256[]",
          "name": "ids",
          "type": "uint256[]"
        },
        {
          "internalType": "uint256[]",
          "name": "values",
          "type": "uint256[]"
        }
      ],
      "name": "burnBatch",
      "outputs": [],
      "stateMutability": "nonpayable",
      "type": "function"
    },
    {
      "inputs": [],
      "name": "contractType",
      "outputs": [
        {
          "internalType": "bytes32",
          "name": "",
          "type": "bytes32"
        }
      ],
      "stateMutability": "pure",
      "type": "function"
    },
    {
      "inputs": [],
      "name": "contractURI",
      "outputs": [
        {
          "internalType": "string",
          "name": "",
          "type": "string"
        }
      ],
      "stateMutability": "view",
      "type": "function"
    },
    {
      "inputs": [],
      "name": "contractVersion",
      "outputs": [
        {
          "internalType": "uint8",
          "name": "",
          "type": "uint8"
        }
      ],
      "stateMutability": "pure",
      "type": "function"
    },
    {
      "inputs": [
        {
          "internalType": "bytes32",
          "name": "role",
          "type": "bytes32"
        }
      ],
      "name": "getRoleAdmin",
      "outputs": [
        {
          "internalType": "bytes32",
          "name": "",
          "type": "bytes32"
        }
      ],
      "stateMutability": "view",
      "type": "function"
    },
    {
      "inputs": [
        {
          "internalType": "bytes32",
          "name": "role",
          "type": "bytes32"
        },
        {
          "internalType": "address",
          "name": "account",
          "type": "address"
        }
      ],
      "name": "grantRole",
      "outputs": [],
      "stateMutability": "nonpayable",
      "type": "function"
    },
    {
      "inputs": [],
      "name": "hasBurnerRole",
      "outputs": [
        {
          "internalType": "bool",
          "name": "",
          "type": "bool"
        }
      ],
      "stateMutability": "view",
      "type": "function"
    },
    {
      "inputs": [],
      "name": "hasMinterRole",
      "outputs": [
        {
          "internalType": "bool",
          "name": "",
          "type": "bool"
        }
      ],
      "stateMutability": "view",
      "type": "function"
    },
    {
      "inputs": [
        {
          "internalType": "bytes32",
          "name": "role",
          "type": "bytes32"
        },
        {
          "internalType": "address",
          "name": "account",
          "type": "address"
        }
      ],
      "name": "hasRole",
      "outputs": [
        {
          "internalType": "bool",
          "name": "",
          "type": "bool"
        }
      ],
      "stateMutability": "view",
      "type": "function"
    },
    {
      "inputs": [
        {
          "internalType": "address",
          "name": "account",
          "type": "address"
        },
        {
          "internalType": "address",
          "name": "operator",
          "type": "address"
        }
      ],
      "name": "isApprovedForAll",
      "outputs": [
        {
          "internalType": "bool",
          "name": "",
          "type": "bool"
        }
      ],
      "stateMutability": "view",
      "type": "function"
    },
    {
      "inputs": [],
      "name": "isOwner",
      "outputs": [
        {
          "internalType": "bool",
          "name": "",
          "type": "bool"
        }
      ],
      "stateMutability": "view",
      "type": "function"
    },
    {
      "inputs": [
        {
          "internalType": "address",
          "name": "forwarder",
          "type": "address"
        }
      ],
      "name": "isTrustedForwarder",
      "outputs": [
        {
          "internalType": "bool",
          "name": "",
          "type": "bool"
        }
      ],
      "stateMutability": "view",
      "type": "function"
    },
    {
      "inputs": [
        {
          "internalType": "string",
          "name": "_tokenURI",
          "type": "string"
        },
        {
          "internalType": "uint256",
          "name": "_amount",
          "type": "uint256"
        }
      ],
      "name": "mint",
      "outputs": [
        {
          "internalType": "uint256",
          "name": "",
          "type": "uint256"
        }
      ],
      "stateMutability": "nonpayable",
      "type": "function"
    },
    {
      "inputs": [
        {
          "internalType": "address",
          "name": "_to",
          "type": "address"
        },
        {
          "internalType": "string",
          "name": "_tokenURI",
          "type": "string"
        },
        {
          "internalType": "uint256",
          "name": "_amount",
          "type": "uint256"
        }
      ],
      "name": "mintTo",
      "outputs": [
        {
          "internalType": "uint256",
          "name": "",
          "type": "uint256"
        }
      ],
      "stateMutability": "nonpayable",
      "type": "function"
    },
    {
      "inputs": [],
      "name": "name",
      "outputs": [
        {
          "internalType": "string",
          "name": "",
          "type": "string"
        }
      ],
      "stateMutability": "view",
      "type": "function"
    },
    {
      "inputs": [],
      "name": "nextTokenIdToMint",
      "outputs": [
        {
          "internalType": "uint256",
          "name": "",
          "type": "uint256"
        }
      ],
      "stateMutability": "view",
      "type": "function"
    },
    {
      "inputs": [],
      "name": "owner",
      "outputs": [
        {
          "internalType": "address",
          "name": "",
          "type": "address"
        }
      ],
      "stateMutability": "view",
      "type": "function"
    },
    {
      "inputs": [
        {
          "internalType": "address[]",
          "name": "burners",
          "type": "address[]"
        }
      ],
      "name": "removeBurners",
      "outputs": [],
      "stateMutability": "nonpayable",
      "type": "function"
    },
    {
      "inputs": [
        {
          "internalType": "address[]",
          "name": "minters",
          "type": "address[]"
        }
      ],
      "name": "removeMinters",
      "outputs": [],
      "stateMutability": "nonpayable",
      "type": "function"
    },
    {
      "inputs": [],
      "name": "renounceOwnership",
      "outputs": [],
      "stateMutability": "nonpayable",
      "type": "function"
    },
    {
      "inputs": [
        {
          "internalType": "bytes32",
          "name": "role",
          "type": "bytes32"
        },
        {
          "internalType": "address",
          "name": "account",
          "type": "address"
        }
      ],
      "name": "renounceRole",
      "outputs": [],
      "stateMutability": "nonpayable",
      "type": "function"
    },
    {
      "inputs": [
        {
          "internalType": "bytes32",
          "name": "role",
          "type": "bytes32"
        },
        {
          "internalType": "address",
          "name": "account",
          "type": "address"
        }
      ],
      "name": "revokeRole",
      "outputs": [],
      "stateMutability": "nonpayable",
      "type": "function"
    },
    {
      "inputs": [
        {
          "internalType": "address",
          "name": "from",
          "type": "address"
        },
        {
          "internalType": "address",
          "name": "to",
          "type": "address"
        },
        {
          "internalType": "uint256[]",
          "name": "ids",
          "type": "uint256[]"
        },
        {
          "internalType": "uint256[]",
          "name": "amounts",
          "type": "uint256[]"
        },
        {
          "internalType": "bytes",
          "name": "data",
          "type": "bytes"
        }
      ],
      "name": "safeBatchTransferFrom",
      "outputs": [],
      "stateMutability": "nonpayable",
      "type": "function"
    },
    {
      "inputs": [
        {
          "internalType": "address",
          "name": "from",
          "type": "address"
        },
        {
          "internalType": "address",
          "name": "to",
          "type": "address"
        },
        {
          "internalType": "uint256",
          "name": "id",
          "type": "uint256"
        },
        {
          "internalType": "uint256",
          "name": "amount",
          "type": "uint256"
        },
        {
          "internalType": "bytes",
          "name": "data",
          "type": "bytes"
        }
      ],
      "name": "safeTransferFrom",
      "outputs": [],
      "stateMutability": "nonpayable",
      "type": "function"
    },
    {
      "inputs": [
        {
          "internalType": "address",
          "name": "operator",
          "type": "address"
        },
        {
          "internalType": "bool",
          "name": "approved",
          "type": "bool"
        }
      ],
      "name": "setApprovalForAll",
      "outputs": [],
      "stateMutability": "nonpayable",
      "type": "function"
    },
    {
      "inputs": [
        {
          "internalType": "address",
          "name": "_newOwner",
          "type": "address"
        }
      ],
      "name": "setOwner",
      "outputs": [],
      "stateMutability": "nonpayable",
      "type": "function"
    },
    {
      "inputs": [
        {
          "internalType": "bytes4",
          "name": "interfaceId",
          "type": "bytes4"
        }
      ],
      "name": "supportsInterface",
      "outputs": [
        {
          "internalType": "bool",
          "name": "",
          "type": "bool"
        }
      ],
      "stateMutability": "view",
      "type": "function"
    },
    {
      "inputs": [],
      "name": "symbol",
      "outputs": [
        {
          "internalType": "string",
          "name": "",
          "type": "string"
        }
      ],
      "stateMutability": "view",
      "type": "function"
    },
    {
      "inputs": [
        {
          "internalType": "uint256",
          "name": "",
          "type": "uint256"
        }
      ],
      "name": "totalSupply",
      "outputs": [
        {
          "internalType": "uint256",
          "name": "",
          "type": "uint256"
        }
      ],
      "stateMutability": "view",
      "type": "function"
    },
    {
      "inputs": [
        {
          "internalType": "uint256",
          "name": "tokenId",
          "type": "uint256"
        },
        {
          "internalType": "address",
          "name": "to",
          "type": "address"
        },
        {
          "internalType": "uint256",
          "name": "amount",
          "type": "uint256"
        }
      ],
      "name": "transferFungibleToken",
      "outputs": [],
      "stateMutability": "payable",
      "type": "function"
    },
    {
      "inputs": [
        {
          "internalType": "uint256",
          "name": "tokenId",
          "type": "uint256"
        },
        {
          "internalType": "address",
          "name": "from",
          "type": "address"
        },
        {
          "internalType": "address",
          "name": "to",
          "type": "address"
        },
        {
          "internalType": "uint256",
          "name": "amount",
          "type": "uint256"
        }
      ],
      "name": "transferFungibleTokenFrom",
      "outputs": [],
      "stateMutability": "payable",
      "type": "function"
    },
    {
      "inputs": [
        {
          "internalType": "uint256",
          "name": "tokenId",
          "type": "uint256"
        },
        {
          "internalType": "address",
          "name": "to",
          "type": "address"
        }
      ],
      "name": "transferNFT",
      "outputs": [],
      "stateMutability": "payable",
      "type": "function"
    },
    {
      "inputs": [
        {
          "internalType": "uint256",
          "name": "tokenId",
          "type": "uint256"
        },
        {
          "internalType": "address",
          "name": "from",
          "type": "address"
        },
        {
          "internalType": "address",
          "name": "to",
          "type": "address"
        }
      ],
      "name": "transferNFTFrom",
      "outputs": [],
      "stateMutability": "payable",
      "type": "function"
    },
    {
      "inputs": [
        {
          "internalType": "address",
          "name": "newOwner",
          "type": "address"
        }
      ],
      "name": "transferOwnership",
      "outputs": [],
      "stateMutability": "nonpayable",
      "type": "function"
    },
    {
      "inputs": [
        {
          "internalType": "uint256",
          "name": "tokenId",
          "type": "uint256"
        }
      ],
      "name": "uri",
      "outputs": [
        {
          "internalType": "string",
          "name": "",
          "type": "string"
        }
      ],
      "stateMutability": "view",
      "type": "function"
    }
  ],
  "bytecode": "0x60c06040819052600060a08190526200001b9160049162000417565b503480156200002957600080fd5b5060405162003c9138038062003c918339810160408190526200004c91620004fe565b6001600160a01b038116608052816200006e62000068620001a7565b620001c3565b620000798162000213565b50600a80546001600160a01b0319166001600160a01b038516179055620000a26000846200022c565b620000bd60008051602062003c71833981519152846200022c565b620000d860008051602062003c51833981519152846200022c565b620001047f3c11d16cbaffd01df69ce1c404f6340ee057498f5f00246190ea54220576a848846200022c565b6200012060008051602062003c5183398151915260006200022c565b6200014460008051602062003c718339815191526200013e620001a7565b6200022c565b620001737f3c11d16cbaffd01df69ce1c404f6340ee057498f5f00246190ea54220576a8486200013e620001a7565b6200019160008051602062003c518339815191526200013e620001a7565b6200019e83600162000238565b50505062000642565b6000620001be6200024e60201b620014491760201c565b905090565b600080546001600160a01b038381166001600160a01b0319831681178455604051919092169283917f8be0079c531659141344cd1fd0a4f28419497f9722a3daafe3b4186f6b6457e09190a35050565b80516200022890600390602084019062000417565b5050565b62000228828262000287565b6200022862000246620001a7565b83836200032d565b6080516000906001600160a01b031633141562000272575060131936013560601c90565b620001be6200041360201b620014911760201c565b60008281526006602090815260408083206001600160a01b038516845290915290205460ff16620002285760008281526006602090815260408083206001600160a01b03851684529091529020805460ff19166001179055620002e9620001a7565b6001600160a01b0316816001600160a01b0316837f2f8788117e7eff1d82e926ec794901d17c78024a50270940304540a733656f0d60405160405180910390a45050565b816001600160a01b0316836001600160a01b03161415620003a65760405162461bcd60e51b815260206004820152602960248201527f455243313135353a2073657474696e6720617070726f76616c20737461747573604482015268103337b91039b2b63360b91b606482015260840160405180910390fd5b6001600160a01b03838116600081815260026020908152604080832094871680845294825291829020805460ff191686151590811790915591519182527f17307eab39ab6107e8899845ad3d59bd9653f200f220920489ca2b5937696c31910160405180910390a3505050565b3390565b828054620004259062000605565b90600052602060002090601f01602090048101928262000449576000855562000494565b82601f106200046457805160ff191683800117855562000494565b8280016001018555821562000494579182015b828111156200049457825182559160200191906001019062000477565b50620004a2929150620004a6565b5090565b5b80821115620004a25760008155600101620004a7565b6001600160a01b0381168114620004d357600080fd5b50565b634e487b7160e01b600052604160045260246000fd5b8051620004f981620004bd565b919050565b6000806000606084860312156200051457600080fd5b83516200052181620004bd565b602085810151919450906001600160401b03808211156200054157600080fd5b818701915087601f8301126200055657600080fd5b8151818111156200056b576200056b620004d6565b604051601f8201601f19908116603f01168101908382118183101715620005965762000596620004d6565b816040528281528a86848701011115620005af57600080fd5b600093505b82841015620005d35784840186015181850187015292850192620005b4565b82841115620005e55760008684830101525b809750505050505050620005fc60408501620004ec565b90509250925092565b600181811c908216806200061a57607f821691505b602082108114156200063c57634e487b7160e01b600052602260045260246000fd5b50919050565b6080516135ec62000665600039600081816104d5015261144d01526135ec6000f3fe6080604052600436106102705760003560e01c806371e2a65711610149578063a217fddf116100c6578063e47d419b1161008a578063f242432a11610064578063f242432a146107b6578063f2fde38b146107d6578063f5298aca146107f657600080fd5b8063e47d419b14610738578063e8a3d48514610758578063e985e9c51461076d57600080fd5b8063a217fddf14610694578063a22cb465146106a9578063bd85b039146106c9578063cb2ef6f7146106f6578063d547741f1461071857600080fd5b80639036c0501161010d5780639036c050146105f757806391d148541461060a57806395d89b4114610650578063a0a8e46014610665578063a15817601461068157600080fd5b806371e2a6571461056d578063745fffbe1461058d5780638c71db58146105a25780638da5cb5b146105b55780638f32d59b146105e257600080fd5b80632eb2c2d6116101f25780634e1273f4116101b65780636b20c454116101905780636b20c454146105255780636b7d06b814610545578063715018a61461055857600080fd5b80634e1273f41461048b578063572b6c05146104b85780635fc1964f1461050557600080fd5b80632eb2c2d6146103f55780632f2ff15d1461041557806336568abe146104355780633ab84dd9146104555780633b1475a71461047557600080fd5b806313af40351161023957806313af40351461033a5780631592b6071461035c578063248a9ca31461037157806324e263a9146103a1578063282c51f3146103c157600080fd5b8062fdd58e1461027557806301ffc9a7146102a8578063056b01ce146102d857806306fdde03146102f85780630e89341c1461031a575b600080fd5b34801561028157600080fd5b50610295610290366004612ad7565b610816565b6040519081526020015b60405180910390f35b3480156102b457600080fd5b506102c86102c3366004612b17565b6108ae565b604051901515815260200161029f565b3480156102e457600080fd5b506102956102f3366004612beb565b6108bf565b34801561030457600080fd5b5061030d61091a565b60405161029f9190612c88565b34801561032657600080fd5b5061030d610335366004612c9b565b6109a8565b34801561034657600080fd5b5061035a610355366004612cb4565b610a88565b005b34801561036857600080fd5b506102c8610b3b565b34801561037d57600080fd5b5061029561038c366004612c9b565b60009081526006602052604090206001015490565b3480156103ad57600080fd5b506102956103bc366004612ccf565b610b6e565b3480156103cd57600080fd5b506102957f3c11d16cbaffd01df69ce1c404f6340ee057498f5f00246190ea54220576a84881565b34801561040157600080fd5b5061035a610410366004612dbb565b610bca565b34801561042157600080fd5b5061035a610430366004612e65565b610c70565b34801561044157600080fd5b5061035a610450366004612e65565b610c9a565b34801561046157600080fd5b5061035a610470366004612efe565b610d32565b34801561048157600080fd5b50610295600b5481565b34801561049757600080fd5b506104ab6104a6366004612f33565b610dbb565b60405161029f9190612fd2565b3480156104c457600080fd5b506102c86104d3366004612cb4565b7f00000000000000000000000000000000000000000000000000000000000000006001600160a01b0390811691161490565b34801561051157600080fd5b5061035a610520366004612efe565b610ee5565b34801561053157600080fd5b5061035a610540366004612fe5565b610f4c565b61035a610553366004613059565b610fe4565b34801561056457600080fd5b5061035a611037565b34801561057957600080fd5b5061035a610588366004612efe565b61104b565b34801561059957600080fd5b506102c86110c7565b61035a6105b036600461308e565b6110f5565b3480156105c157600080fd5b506105ca61113c565b6040516001600160a01b03909116815260200161029f565b3480156105ee57600080fd5b506102c8611193565b61035a610605366004612e65565b6111bd565b34801561061657600080fd5b506102c8610625366004612e65565b60009182526006602090815260408084206001600160a01b0393909316845291905290205460ff1690565b34801561065c57600080fd5b5061030d61120b565b34801561067157600080fd5b506040516001815260200161029f565b61035a61068f3660046130ca565b611218565b3480156106a057600080fd5b50610295600081565b3480156106b557600080fd5b5061035a6106c436600461310e565b61125e565b3480156106d557600080fd5b506102956106e4366004612c9b565b600e6020526000908152604090205481565b34801561070257600080fd5b506b22a92198989a9aaa37b5b2b760a11b610295565b34801561072457600080fd5b5061035a610733366004612e65565b611270565b34801561074457600080fd5b5061035a610753366004612efe565b611295565b34801561076457600080fd5b5061030d6112ef565b34801561077957600080fd5b506102c861078836600461314a565b6001600160a01b03918216600090815260026020908152604080832093909416825291909152205460ff1690565b3480156107c257600080fd5b5061035a6107d1366004613174565b6112fc565b3480156107e257600080fd5b5061035a6107f1366004612cb4565b61139b565b34801561080257600080fd5b5061035a6108113660046131d9565b611414565b60006001600160a01b0383166108865760405162461bcd60e51b815260206004820152602a60248201527f455243313135353a2061646472657373207a65726f206973206e6f742061207660448201526930b634b21037bbb732b960b11b60648201526084015b60405180910390fd5b5060009081526001602090815260408083206001600160a01b03949094168352929052205490565b60006108b982611495565b92915050565b60007f9f2df0fed2c77648de5860a4cc508cd0818c85b8b8a1ab4ceeef8d981c8956a66108eb816114ba565b6108f9600780546001019055565b600061090460075490565b9050610912308683876114cb565b949350505050565b600880546109279061320c565b80601f01602080910402602001604051908101604052809291908181526020018280546109539061320c565b80156109a05780601f10610975576101008083540402835291602001916109a0565b820191906000526020600020905b81548152906001019060200180831161098357829003601f168201915b505050505081565b6000818152600560205260408120805460609291906109c69061320c565b80601f01602080910402602001604051908101604052809291908181526020018280546109f29061320c565b8015610a3f5780601f10610a1457610100808354040283529160200191610a3f565b820191906000526020600020905b815481529060010190602001808311610a2257829003601f168201915b505050505090506000815111610a5d57610a58836114f7565b610a81565b600481604051602001610a71929190613263565b6040516020818303038152906040525b9392505050565b6000610a93816114ba565b6001600160a01b03821660009081527f54cdd369e4e8a8515e52ca72ec816c2101831ad1f18bf44102ed171459c9b4f8602052604090205460ff16610b035760405162461bcd60e51b815260206004820152600660248201526510a0a226a4a760d11b604482015260640161087d565b600a805473ffffffffffffffffffffffffffffffffffffffff19166001600160a01b038416908117909155610b379061139b565b5050565b6000610b697f9f2df0fed2c77648de5860a4cc508cd0818c85b8b8a1ab4ceeef8d981c8956a661062561158b565b905090565b60007f9f2df0fed2c77648de5860a4cc508cd0818c85b8b8a1ab4ceeef8d981c8956a6610b9a816114ba565b610ba8600780546001019055565b6000610bb360075490565b9050610bc1868683876114cb565b95945050505050565b610bd261158b565b6001600160a01b0316856001600160a01b03161480610bf85750610bf88561078861158b565b610c5c5760405162461bcd60e51b815260206004820152602f60248201527f455243313135353a2063616c6c6572206973206e6f7420746f6b656e206f776e60448201526e195c881b9bdc88185c1c1c9bdd9959608a1b606482015260840161087d565b610c698585858585611595565b5050505050565b600082815260066020526040902060010154610c8b816114ba565b610c95838361180f565b505050565b610ca261158b565b6001600160a01b0316816001600160a01b031614610d285760405162461bcd60e51b815260206004820152602f60248201527f416363657373436f6e74726f6c3a2063616e206f6e6c792072656e6f756e636560448201527f20726f6c657320666f722073656c660000000000000000000000000000000000606482015260840161087d565b610b3782826118b2565b7f3c11d16cbaffd01df69ce1c404f6340ee057498f5f00246190ea54220576a848610d5c816114ba565b60005b8251811015610c9557610dab7f3c11d16cbaffd01df69ce1c404f6340ee057498f5f00246190ea54220576a848848381518110610d9e57610d9e613301565b6020026020010151611953565b610db48161332d565b9050610d5f565b60608151835114610e205760405162461bcd60e51b815260206004820152602960248201527f455243313135353a206163636f756e747320616e6420696473206c656e677468604482015268040dad2e6dac2e8c6d60bb1b606482015260840161087d565b6000835167ffffffffffffffff811115610e3c57610e3c612b34565b604051908082528060200260200182016040528015610e65578160200160208202803683370190505b50905060005b8451811015610edd57610eb0858281518110610e8957610e89613301565b6020026020010151858381518110610ea357610ea3613301565b6020026020010151610816565b828281518110610ec257610ec2613301565b6020908102919091010152610ed68161332d565b9050610e6b565b509392505050565b610eed61195d565b60005b8151811015610b3757610f3c7f9f2df0fed2c77648de5860a4cc508cd0818c85b8b8a1ab4ceeef8d981c8956a6838381518110610f2f57610f2f613301565b6020026020010151611270565b610f458161332d565b9050610ef0565b610f5461158b565b6001600160a01b0316836001600160a01b03161480610f7a5750610f7a8361078861158b565b610fd95760405162461bcd60e51b815260206004820152602a60248201527f455243313135353a2063616c6c6572206973206e6f74206f776e6572206e6f726044820152691030b8383937bb32b21760b11b606482015260840161087d565b610c958383836119cc565b7f8502233096d909befbda0999bb8ea2f3a6be3c138b9fbf003752a4c8bce86f6c61100e816114ba565b61103161101961158b565b848685604051806020016040528060008152506112fc565b50505050565b61103f61195d565b6110496000611c2b565b565b7f9f2df0fed2c77648de5860a4cc508cd0818c85b8b8a1ab4ceeef8d981c8956a6611075816114ba565b60005b8251811015610c95576110b77f9f2df0fed2c77648de5860a4cc508cd0818c85b8b8a1ab4ceeef8d981c8956a6848381518110610d9e57610d9e613301565b6110c08161332d565b9050611078565b6000610b697f3c11d16cbaffd01df69ce1c404f6340ee057498f5f00246190ea54220576a84861062561158b565b7f8502233096d909befbda0999bb8ea2f3a6be3c138b9fbf003752a4c8bce86f6c61111f816114ba565b6110318383866001604051806020016040528060008152506112fc565b600a546001600160a01b031660009081527f54cdd369e4e8a8515e52ca72ec816c2101831ad1f18bf44102ed171459c9b4f8602052604081205460ff166111835750600090565b50600a546001600160a01b031690565b600061119d61158b565b6001600160a01b03166111ae61113c565b6001600160a01b031614905090565b7f8502233096d909befbda0999bb8ea2f3a6be3c138b9fbf003752a4c8bce86f6c6111e7816114ba565b610c956111f261158b565b83856001604051806020016040528060008152506112fc565b600980546109279061320c565b7f8502233096d909befbda0999bb8ea2f3a6be3c138b9fbf003752a4c8bce86f6c611242816114ba565b610c6984848785604051806020016040528060008152506112fc565b610b3761126961158b565b8383611c88565b60008281526006602052604090206001015461128b816114ba565b610c9583836118b2565b61129d61195d565b60005b8151811015610b37576112df7f3c11d16cbaffd01df69ce1c404f6340ee057498f5f00246190ea54220576a848838381518110610f2f57610f2f613301565b6112e88161332d565b90506112a0565b600c80546109279061320c565b61130461158b565b6001600160a01b0316856001600160a01b0316148061132a575061132a8561078861158b565b61138e5760405162461bcd60e51b815260206004820152602f60248201527f455243313135353a2063616c6c6572206973206e6f7420746f6b656e206f776e60448201526e195c881b9bdc88185c1c1c9bdd9959608a1b606482015260840161087d565b610c698585858585611d69565b6113a361195d565b6001600160a01b0381166114085760405162461bcd60e51b815260206004820152602660248201527f4f776e61626c653a206e6577206f776e657220697320746865207a65726f206160448201526564647265737360d01b606482015260840161087d565b61141181611c2b565b50565b7f3c11d16cbaffd01df69ce1c404f6340ee057498f5f00246190ea54220576a84861143e816114ba565b611031848484611f31565b60007f00000000000000000000000000000000000000000000000000000000000000006001600160a01b0316331415611489575060131936013560601c90565b503390565b90565b3390565b60006001600160e01b03198216637965db0b60e01b14806108b957506108b9826120d5565b611411816114c661158b565b612125565b8251156114dc576114dc82846121a5565b61103184838360405180602001604052806000815250612209565b6060600380546115069061320c565b80601f01602080910402602001604051908101604052809291908181526020018280546115329061320c565b801561157f5780601f106115545761010080835404028352916020019161157f565b820191906000526020600020905b81548152906001019060200180831161156257829003601f168201915b50505050509050919050565b6000610b69611449565b81518351146115f75760405162461bcd60e51b815260206004820152602860248201527f455243313135353a2069647320616e6420616d6f756e7473206c656e677468206044820152670dad2e6dac2e8c6d60c31b606482015260840161087d565b6001600160a01b03841661165b5760405162461bcd60e51b815260206004820152602560248201527f455243313135353a207472616e7366657220746f20746865207a65726f206164604482015264647265737360d81b606482015260840161087d565b600061166561158b565b9050611675818787878787612330565b60005b84518110156117a157600085828151811061169557611695613301565b6020026020010151905060008583815181106116b3576116b3613301565b60209081029190910181015160008481526001835260408082206001600160a01b038e1683529093529190912054909150818110156117475760405162461bcd60e51b815260206004820152602a60248201527f455243313135353a20696e73756666696369656e742062616c616e636520666f60448201526939103a3930b739b332b960b11b606482015260840161087d565b60008381526001602090815260408083206001600160a01b038e8116855292528083208585039055908b16825281208054849290611786908490613348565b925050819055505050508061179a9061332d565b9050611678565b50846001600160a01b0316866001600160a01b0316826001600160a01b03167f4a39dc06d4c0dbc64b70af90fd698a233a518aa5d07e595d983b8c0526c8f7fb87876040516117f1929190613360565b60405180910390a461180781878787878761258c565b505050505050565b60008281526006602090815260408083206001600160a01b038516845290915290205460ff16610b375760008281526006602090815260408083206001600160a01b03851684529091529020805460ff1916600117905561186e61158b565b6001600160a01b0316816001600160a01b0316837f2f8788117e7eff1d82e926ec794901d17c78024a50270940304540a733656f0d60405160405180910390a45050565b60008281526006602090815260408083206001600160a01b038516845290915290205460ff1615610b375760008281526006602090815260408083206001600160a01b03851684529091529020805460ff1916905561190f61158b565b6001600160a01b0316816001600160a01b0316837ff6391f5c32d9c69d2a47ea670b442974b53935d1edc7fd64eb21e047a839171b60405160405180910390a45050565b610b37828261180f565b61196561158b565b6001600160a01b031661197661113c565b6001600160a01b0316146110495760405162461bcd60e51b815260206004820181905260248201527f4f776e61626c653a2063616c6c6572206973206e6f7420746865206f776e6572604482015260640161087d565b6001600160a01b038316611a2e5760405162461bcd60e51b815260206004820152602360248201527f455243313135353a206275726e2066726f6d20746865207a65726f206164647260448201526265737360e81b606482015260840161087d565b8051825114611a905760405162461bcd60e51b815260206004820152602860248201527f455243313135353a2069647320616e6420616d6f756e7473206c656e677468206044820152670dad2e6dac2e8c6d60c31b606482015260840161087d565b6000611a9a61158b565b9050611aba81856000868660405180602001604052806000815250612330565b60005b8351811015611bbe576000848281518110611ada57611ada613301565b602002602001015190506000848381518110611af857611af8613301565b60209081029190910181015160008481526001835260408082206001600160a01b038c168352909352919091205490915081811015611b855760405162461bcd60e51b8152602060048201526024808201527f455243313135353a206275726e20616d6f756e7420657863656564732062616c604482015263616e636560e01b606482015260840161087d565b60009283526001602090815260408085206001600160a01b038b1686529091529092209103905580611bb68161332d565b915050611abd565b5060006001600160a01b0316846001600160a01b0316826001600160a01b03167f4a39dc06d4c0dbc64b70af90fd698a233a518aa5d07e595d983b8c0526c8f7fb8686604051611c0f929190613360565b60405180910390a4604080516020810190915260009052611031565b600080546001600160a01b0383811673ffffffffffffffffffffffffffffffffffffffff19831681178455604051919092169283917f8be0079c531659141344cd1fd0a4f28419497f9722a3daafe3b4186f6b6457e09190a35050565b816001600160a01b0316836001600160a01b03161415611cfc5760405162461bcd60e51b815260206004820152602960248201527f455243313135353a2073657474696e6720617070726f76616c20737461747573604482015268103337b91039b2b63360b91b606482015260840161087d565b6001600160a01b03838116600081815260026020908152604080832094871680845294825291829020805460ff191686151590811790915591519182527f17307eab39ab6107e8899845ad3d59bd9653f200f220920489ca2b5937696c31910160405180910390a3505050565b6001600160a01b038416611dcd5760405162461bcd60e51b815260206004820152602560248201527f455243313135353a207472616e7366657220746f20746865207a65726f206164604482015264647265737360d81b606482015260840161087d565b6000611dd761158b565b90506000611de485612732565b90506000611df185612732565b9050611e01838989858589612330565b60008681526001602090815260408083206001600160a01b038c16845290915290205485811015611e875760405162461bcd60e51b815260206004820152602a60248201527f455243313135353a20696e73756666696369656e742062616c616e636520666f60448201526939103a3930b739b332b960b11b606482015260840161087d565b60008781526001602090815260408083206001600160a01b038d8116855292528083208985039055908a16825281208054889290611ec6908490613348565b909155505060408051888152602081018890526001600160a01b03808b16928c821692918816917fc3d58168c5ae7397731d063d5bbf3d657854427343f4c083240f7aacaa2d0f62910160405180910390a4611f26848a8a8a8a8a61277d565b505050505050505050565b6001600160a01b038316611f935760405162461bcd60e51b815260206004820152602360248201527f455243313135353a206275726e2066726f6d20746865207a65726f206164647260448201526265737360e81b606482015260840161087d565b6000611f9d61158b565b90506000611faa84612732565b90506000611fb784612732565b9050611fd783876000858560405180602001604052806000815250612330565b60008581526001602090815260408083206001600160a01b038a168452909152902054848110156120565760405162461bcd60e51b8152602060048201526024808201527f455243313135353a206275726e20616d6f756e7420657863656564732062616c604482015263616e636560e01b606482015260840161087d565b60008681526001602090815260408083206001600160a01b038b81168086529184528285208a8703905582518b81529384018a90529092908816917fc3d58168c5ae7397731d063d5bbf3d657854427343f4c083240f7aacaa2d0f62910160405180910390a46040805160208101909152600090525b50505050505050565b60006001600160e01b03198216636cdb3d1360e11b148061210657506001600160e01b031982166303a24d0760e21b145b806108b957506301ffc9a760e01b6001600160e01b03198316146108b9565b60008281526006602090815260408083206001600160a01b038516845290915290205460ff16610b3757612163816001600160a01b03166014612879565b61216e836020612879565b60405160200161217f929190613385565b60408051601f198184030181529082905262461bcd60e51b825261087d91600401612c88565b600082815260056020908152604090912082516121c492840190612a22565b50817f6bb7ff708619ba0610cba295a58592e0451dee2622938c8755667688daf3529b6121f0846109a8565b6040516121fd9190612c88565b60405180910390a25050565b6001600160a01b0384166122695760405162461bcd60e51b815260206004820152602160248201527f455243313135353a206d696e7420746f20746865207a65726f206164647265736044820152607360f81b606482015260840161087d565b600061227361158b565b9050600061228085612732565b9050600061228d85612732565b905061229e83600089858589612330565b60008681526001602090815260408083206001600160a01b038b168452909152812080548792906122d0908490613348565b909155505060408051878152602081018790526001600160a01b03808a1692600092918716917fc3d58168c5ae7397731d063d5bbf3d657854427343f4c083240f7aacaa2d0f62910160405180910390a46120cc8360008989898961277d565b600080527f90c276c67a19c282c7de40a6de63b141616931e213f9fd4b4a9325f19a097e466020527f228e6bd055da8b5bd44a542f2af2439f4656c6693ef9de5d469824e27eb37b745460ff1615801561239257506001600160a01b03851615155b80156123a657506001600160a01b03841615155b15612480576001600160a01b03851660009081527f90c276c67a19c282c7de40a6de63b141616931e213f9fd4b4a9325f19a097e46602052604090205460ff168061242857506001600160a01b03841660009081527f90c276c67a19c282c7de40a6de63b141616931e213f9fd4b4a9325f19a097e46602052604090205460ff165b6124805760405162461bcd60e51b8152602060048201526024808201527f7265737472696374656420746f205452414e534645525f524f4c4520686f6c6460448201526332b9399760e11b606482015260840161087d565b6001600160a01b0385166125075760005b8351811015612505578281815181106124ac576124ac613301565b6020026020010151600e60008684815181106124ca576124ca613301565b6020026020010151815260200190815260200160002060008282546124ef9190613348565b909155506124fe90508161332d565b9050612491565b505b6001600160a01b0384166118075760005b83518110156120cc5782818151811061253357612533613301565b6020026020010151600e600086848151811061255157612551613301565b6020026020010151815260200190815260200160002060008282546125769190613406565b9091555061258590508161332d565b9050612518565b6001600160a01b0384163b156118075760405163bc197c8160e01b81526001600160a01b0385169063bc197c81906125d0908990899088908890889060040161341d565b6020604051808303816000875af192505050801561260b575060408051601f3d908101601f191682019092526126089181019061347b565b60015b6126c157612617613498565b806308c379a01415612651575061262c6134b3565b806126375750612653565b8060405162461bcd60e51b815260040161087d9190612c88565b505b60405162461bcd60e51b815260206004820152603460248201527f455243313135353a207472616e7366657220746f206e6f6e204552433131353560448201527f526563656976657220696d706c656d656e746572000000000000000000000000606482015260840161087d565b6001600160e01b0319811663bc197c8160e01b146120cc5760405162461bcd60e51b815260206004820152602860248201527f455243313135353a204552433131353552656365697665722072656a656374656044820152676420746f6b656e7360c01b606482015260840161087d565b6040805160018082528183019092526060916000919060208083019080368337019050509050828160008151811061276c5761276c613301565b602090810291909101015292915050565b6001600160a01b0384163b156118075760405163f23a6e6160e01b81526001600160a01b0385169063f23a6e61906127c1908990899088908890889060040161353d565b6020604051808303816000875af19250505080156127fc575060408051601f3d908101601f191682019092526127f99181019061347b565b60015b61280857612617613498565b6001600160e01b0319811663f23a6e6160e01b146120cc5760405162461bcd60e51b815260206004820152602860248201527f455243313135353a204552433131353552656365697665722072656a656374656044820152676420746f6b656e7360c01b606482015260840161087d565b60606000612888836002613580565b612893906002613348565b67ffffffffffffffff8111156128ab576128ab612b34565b6040519080825280601f01601f1916602001820160405280156128d5576020820181803683370190505b509050600360fc1b816000815181106128f0576128f0613301565b60200101906001600160f81b031916908160001a905350600f60fb1b8160018151811061291f5761291f613301565b60200101906001600160f81b031916908160001a9053506000612943846002613580565b61294e906001613348565b90505b60018111156129d3577f303132333435363738396162636465660000000000000000000000000000000085600f166010811061298f5761298f613301565b1a60f81b8282815181106129a5576129a5613301565b60200101906001600160f81b031916908160001a90535060049490941c936129cc8161359f565b9050612951565b508315610a815760405162461bcd60e51b815260206004820181905260248201527f537472696e67733a20686578206c656e67746820696e73756666696369656e74604482015260640161087d565b828054612a2e9061320c565b90600052602060002090601f016020900481019282612a505760008555612a96565b82601f10612a6957805160ff1916838001178555612a96565b82800160010185558215612a96579182015b82811115612a96578251825591602001919060010190612a7b565b50612aa2929150612aa6565b5090565b5b80821115612aa25760008155600101612aa7565b80356001600160a01b0381168114612ad257600080fd5b919050565b60008060408385031215612aea57600080fd5b612af383612abb565b946020939093013593505050565b6001600160e01b03198116811461141157600080fd5b600060208284031215612b2957600080fd5b8135610a8181612b01565b634e487b7160e01b600052604160045260246000fd5b601f8201601f1916810167ffffffffffffffff81118282101715612b7057612b70612b34565b6040525050565b600082601f830112612b8857600080fd5b813567ffffffffffffffff811115612ba257612ba2612b34565b604051612bb9601f8301601f191660200182612b4a565b818152846020838601011115612bce57600080fd5b816020850160208301376000918101602001919091529392505050565b60008060408385031215612bfe57600080fd5b823567ffffffffffffffff811115612c1557600080fd5b612c2185828601612b77565b95602094909401359450505050565b60005b83811015612c4b578181015183820152602001612c33565b838111156110315750506000910152565b60008151808452612c74816020860160208601612c30565b601f01601f19169290920160200192915050565b602081526000610a816020830184612c5c565b600060208284031215612cad57600080fd5b5035919050565b600060208284031215612cc657600080fd5b610a8182612abb565b600080600060608486031215612ce457600080fd5b612ced84612abb565b9250602084013567ffffffffffffffff811115612d0957600080fd5b612d1586828701612b77565b925050604084013590509250925092565b600067ffffffffffffffff821115612d4057612d40612b34565b5060051b60200190565b600082601f830112612d5b57600080fd5b81356020612d6882612d26565b604051612d758282612b4a565b83815260059390931b8501820192828101915086841115612d9557600080fd5b8286015b84811015612db05780358352918301918301612d99565b509695505050505050565b600080600080600060a08688031215612dd357600080fd5b612ddc86612abb565b9450612dea60208701612abb565b9350604086013567ffffffffffffffff80821115612e0757600080fd5b612e1389838a01612d4a565b94506060880135915080821115612e2957600080fd5b612e3589838a01612d4a565b93506080880135915080821115612e4b57600080fd5b50612e5888828901612b77565b9150509295509295909350565b60008060408385031215612e7857600080fd5b82359150612e8860208401612abb565b90509250929050565b600082601f830112612ea257600080fd5b81356020612eaf82612d26565b604051612ebc8282612b4a565b83815260059390931b8501820192828101915086841115612edc57600080fd5b8286015b84811015612db057612ef181612abb565b8352918301918301612ee0565b600060208284031215612f1057600080fd5b813567ffffffffffffffff811115612f2757600080fd5b61091284828501612e91565b60008060408385031215612f4657600080fd5b823567ffffffffffffffff80821115612f5e57600080fd5b612f6a86838701612e91565b93506020850135915080821115612f8057600080fd5b50612f8d85828601612d4a565b9150509250929050565b600081518084526020808501945080840160005b83811015612fc757815187529582019590820190600101612fab565b509495945050505050565b602081526000610a816020830184612f97565b600080600060608486031215612ffa57600080fd5b61300384612abb565b9250602084013567ffffffffffffffff8082111561302057600080fd5b61302c87838801612d4a565b9350604086013591508082111561304257600080fd5b5061304f86828701612d4a565b9150509250925092565b60008060006060848603121561306e57600080fd5b8335925061307e60208501612abb565b9150604084013590509250925092565b6000806000606084860312156130a357600080fd5b833592506130b360208501612abb565b91506130c160408501612abb565b90509250925092565b600080600080608085870312156130e057600080fd5b843593506130f060208601612abb565b92506130fe60408601612abb565b9396929550929360600135925050565b6000806040838503121561312157600080fd5b61312a83612abb565b91506020830135801515811461313f57600080fd5b809150509250929050565b6000806040838503121561315d57600080fd5b61316683612abb565b9150612e8860208401612abb565b600080600080600060a0868803121561318c57600080fd5b61319586612abb565b94506131a360208701612abb565b93506040860135925060608601359150608086013567ffffffffffffffff8111156131cd57600080fd5b612e5888828901612b77565b6000806000606084860312156131ee57600080fd5b6131f784612abb565b95602085013595506040909401359392505050565b600181811c9082168061322057607f821691505b6020821081141561324157634e487b7160e01b600052602260045260246000fd5b50919050565b60008151613259818560208601612c30565b9290920192915050565b600080845481600182811c91508083168061327f57607f831692505b602080841082141561329f57634e487b7160e01b86526022600452602486fd5b8180156132b357600181146132c4576132f1565b60ff198616895284890196506132f1565b60008b81526020902060005b868110156132e95781548b8201529085019083016132d0565b505084890196505b505050505050610bc18185613247565b634e487b7160e01b600052603260045260246000fd5b634e487b7160e01b600052601160045260246000fd5b600060001982141561334157613341613317565b5060010190565b6000821982111561335b5761335b613317565b500190565b6040815260006133736040830185612f97565b8281036020840152610bc18185612f97565b7f416363657373436f6e74726f6c3a206163636f756e74200000000000000000008152600083516133bd816017850160208801612c30565b7f206973206d697373696e6720726f6c652000000000000000000000000000000060179184019182015283516133fa816028840160208801612c30565b01602801949350505050565b60008282101561341857613418613317565b500390565b60006001600160a01b03808816835280871660208401525060a0604083015261344960a0830186612f97565b828103606084015261345b8186612f97565b9050828103608084015261346f8185612c5c565b98975050505050505050565b60006020828403121561348d57600080fd5b8151610a8181612b01565b600060033d111561148e5760046000803e5060005160e01c90565b600060443d10156134c15790565b6040516003193d81016004833e81513d67ffffffffffffffff81602484011181841117156134f157505050505090565b82850191508151818111156135095750505050505090565b843d87010160208285010111156135235750505050505090565b61353260208286010187612b4a565b509095945050505050565b60006001600160a01b03808816835280871660208401525084604083015283606083015260a0608083015261357560a0830184612c5c565b979650505050505050565b600081600019048311821515161561359a5761359a613317565b500290565b6000816135ae576135ae613317565b50600019019056fea26469706673582212203d3b9e10b64415217038ff9ae9800b2ab83c41f1a728cec65de6f83d68823dd764736f6c634300080c00338502233096d909befbda0999bb8ea2f3a6be3c138b9fbf003752a4c8bce86f6c9f2df0fed2c77648de5860a4cc508cd0818c85b8b8a1ab4ceeef8d981c8956a6",
  "linkReferences": {},
  "deployedLinkReferences": {}
}