{
  "_format": "hh-sol-artifact-1",
  "contractName": "ERC20Token",
  "sourceName": "contracts/legit/ERC20Token.sol",
  "abi": [
    {
      "inputs": [
        {
          "internalType": "string",
          "name": "token_name",
          "type": "string"
        },
        {
          "internalType": "string",
          "name": "token_code",
          "type": "string"
        },
        {
          "internalType": "uint256",
          "name": "_initial_amount",
          "type": "uint256"
        },
        {
          "internalType": "address",
          "name": "owner",
          "type": "address"
        },
        {
          "internalType": "address[]",
          "name": "minters",
          "type": "address[]"
        },
        {
          "internalType": "contract MinimalForwarder",
          "name": "forwarder",
          "type": "address"
        }
      ],
      "stateMutability": "nonpayable",
      "type": "constructor"
    },
    {
      "anonymous": false,
      "inputs": [
        {
          "indexed": true,
          "internalType": "address",
          "name": "owner",
          "type": "address"
        },
        {
          "indexed": true,
          "internalType": "address",
          "name": "spender",
          "type": "address"
        },
        {
          "indexed": false,
          "internalType": "uint256",
          "name": "value",
          "type": "uint256"
        }
      ],
      "name": "Approval",
      "type": "event"
    },
    {
      "anonymous": false,
      "inputs": [
        {
          "indexed": true,
          "internalType": "address",
          "name": "previousOwner",
          "type": "address"
        },
        {
          "indexed": true,
          "internalType": "address",
          "name": "newOwner",
          "type": "address"
        }
      ],
      "name": "OwnershipTransferred",
      "type": "event"
    },
    {
      "anonymous": false,
      "inputs": [
        {
          "indexed": true,
          "internalType": "bytes32",
          "name": "role",
          "type": "bytes32"
        },
        {
          "indexed": true,
          "internalType": "bytes32",
          "name": "previousAdminRole",
          "type": "bytes32"
        },
        {
          "indexed": true,
          "internalType": "bytes32",
          "name": "newAdminRole",
          "type": "bytes32"
        }
      ],
      "name": "RoleAdminChanged",
      "type": "event"
    },
    {
      "anonymous": false,
      "inputs": [
        {
          "indexed": true,
          "internalType": "bytes32",
          "name": "role",
          "type": "bytes32"
        },
        {
          "indexed": true,
          "internalType": "address",
          "name": "account",
          "type": "address"
        },
        {
          "indexed": true,
          "internalType": "address",
          "name": "sender",
          "type": "address"
        }
      ],
      "name": "RoleGranted",
      "type": "event"
    },
    {
      "anonymous": false,
      "inputs": [
        {
          "indexed": true,
          "internalType": "bytes32",
          "name": "role",
          "type": "bytes32"
        },
        {
          "indexed": true,
          "internalType": "address",
          "name": "account",
          "type": "address"
        },
        {
          "indexed": true,
          "internalType": "address",
          "name": "sender",
          "type": "address"
        }
      ],
      "name": "RoleRevoked",
      "type": "event"
    },
    {
      "anonymous": false,
      "inputs": [
        {
          "indexed": true,
          "internalType": "address",
          "name": "from",
          "type": "address"
        },
        {
          "indexed": true,
          "internalType": "address",
          "name": "to",
          "type": "address"
        },
        {
          "indexed": false,
          "internalType": "uint256",
          "name": "value",
          "type": "uint256"
        }
      ],
      "name": "Transfer",
      "type": "event"
    },
    {
      "inputs": [],
      "name": "BURNER_ROLE",
      "outputs": [
        {
          "internalType": "bytes32",
          "name": "",
          "type": "bytes32"
        }
      ],
      "stateMutability": "view",
      "type": "function"
    },
    {
      "inputs": [],
      "name": "DEFAULT_ADMIN_ROLE",
      "outputs": [
        {
          "internalType": "bytes32",
          "name": "",
          "type": "bytes32"
        }
      ],
      "stateMutability": "view",
      "type": "function"
    },
    {
      "inputs": [],
      "name": "MINTER_ROLE",
      "outputs": [
        {
          "internalType": "bytes32",
          "name": "",
          "type": "bytes32"
        }
      ],
      "stateMutability": "view",
      "type": "function"
    },
    {
      "inputs": [],
      "name": "TRANSFER_ROLE",
      "outputs": [
        {
          "internalType": "bytes32",
          "name": "",
          "type": "bytes32"
        }
      ],
      "stateMutability": "view",
      "type": "function"
    },
    {
      "inputs": [
        {
          "internalType": "address[]",
          "name": "burners",
          "type": "address[]"
        }
      ],
      "name": "addBurners",
      "outputs": [],
      "stateMutability": "nonpayable",
      "type": "function"
    },
    {
      "inputs": [
        {
          "internalType": "address[]",
          "name": "minters",
          "type": "address[]"
        }
      ],
      "name": "addMinters",
      "outputs": [],
      "stateMutability": "nonpayable",
      "type": "function"
    },
    {
      "inputs": [
        {
          "internalType": "address",
          "name": "owner",
          "type": "address"
        },
        {
          "internalType": "address",
          "name": "spender",
          "type": "address"
        }
      ],
      "name": "allowance",
      "outputs": [
        {
          "internalType": "uint256",
          "name": "",
          "type": "uint256"
        }
      ],
      "stateMutability": "view",
      "type": "function"
    },
    {
      "inputs": [
        {
          "internalType": "address",
          "name": "spender",
          "type": "address"
        },
        {
          "internalType": "uint256",
          "name": "amount",
          "type": "uint256"
        }
      ],
      "name": "approve",
      "outputs": [
        {
          "internalType": "bool",
          "name": "",
          "type": "bool"
        }
      ],
      "stateMutability": "nonpayable",
      "type": "function"
    },
    {
      "inputs": [
        {
          "internalType": "address",
          "name": "account",
          "type": "address"
        }
      ],
      "name": "balanceOf",
      "outputs": [
        {
          "internalType": "uint256",
          "name": "",
          "type": "uint256"
        }
      ],
      "stateMutability": "view",
      "type": "function"
    },
    {
      "inputs": [
        {
          "internalType": "address",
          "name": "from",
          "type": "address"
        },
        {
          "internalType": "uint256",
          "name": "amount",
          "type": "uint256"
        }
      ],
      "name": "burn",
      "outputs": [],
      "stateMutability": "nonpayable",
      "type": "function"
    },
    {
      "inputs": [],
      "name": "decimals",
      "outputs": [
        {
          "internalType": "uint8",
          "name": "",
          "type": "uint8"
        }
      ],
      "stateMutability": "view",
      "type": "function"
    },
    {
      "inputs": [
        {
          "internalType": "address",
          "name": "spender",
          "type": "address"
        },
        {
          "internalType": "uint256",
          "name": "subtractedValue",
          "type": "uint256"
        }
      ],
      "name": "decreaseAllowance",
      "outputs": [
        {
          "internalType": "bool",
          "name": "",
          "type": "bool"
        }
      ],
      "stateMutability": "nonpayable",
      "type": "function"
    },
    {
      "inputs": [
        {
          "internalType": "bytes32",
          "name": "role",
          "type": "bytes32"
        }
      ],
      "name": "getRoleAdmin",
      "outputs": [
        {
          "internalType": "bytes32",
          "name": "",
          "type": "bytes32"
        }
      ],
      "stateMutability": "view",
      "type": "function"
    },
    {
      "inputs": [
        {
          "internalType": "bytes32",
          "name": "role",
          "type": "bytes32"
        },
        {
          "internalType": "address",
          "name": "account",
          "type": "address"
        }
      ],
      "name": "grantRole",
      "outputs": [],
      "stateMutability": "nonpayable",
      "type": "function"
    },
    {
      "inputs": [],
      "name": "hasBurnerRole",
      "outputs": [
        {
          "internalType": "bool",
          "name": "",
          "type": "bool"
        }
      ],
      "stateMutability": "view",
      "type": "function"
    },
    {
      "inputs": [],
      "name": "hasMinterRole",
      "outputs": [
        {
          "internalType": "bool",
          "name": "",
          "type": "bool"
        }
      ],
      "stateMutability": "view",
      "type": "function"
    },
    {
      "inputs": [
        {
          "internalType": "bytes32",
          "name": "role",
          "type": "bytes32"
        },
        {
          "internalType": "address",
          "name": "account",
          "type": "address"
        }
      ],
      "name": "hasRole",
      "outputs": [
        {
          "internalType": "bool",
          "name": "",
          "type": "bool"
        }
      ],
      "stateMutability": "view",
      "type": "function"
    },
    {
      "inputs": [
        {
          "internalType": "address",
          "name": "spender",
          "type": "address"
        },
        {
          "internalType": "uint256",
          "name": "addedValue",
          "type": "uint256"
        }
      ],
      "name": "increaseAllowance",
      "outputs": [
        {
          "internalType": "bool",
          "name": "",
          "type": "bool"
        }
      ],
      "stateMutability": "nonpayable",
      "type": "function"
    },
    {
      "inputs": [],
      "name": "isOwner",
      "outputs": [
        {
          "internalType": "bool",
          "name": "",
          "type": "bool"
        }
      ],
      "stateMutability": "view",
      "type": "function"
    },
    {
      "inputs": [
        {
          "internalType": "address",
          "name": "forwarder",
          "type": "address"
        }
      ],
      "name": "isTrustedForwarder",
      "outputs": [
        {
          "internalType": "bool",
          "name": "",
          "type": "bool"
        }
      ],
      "stateMutability": "view",
      "type": "function"
    },
    {
      "inputs": [
        {
          "internalType": "uint256",
          "name": "amount",
          "type": "uint256"
        }
      ],
      "name": "mint",
      "outputs": [],
      "stateMutability": "nonpayable",
      "type": "function"
    },
    {
      "inputs": [],
      "name": "name",
      "outputs": [
        {
          "internalType": "string",
          "name": "",
          "type": "string"
        }
      ],
      "stateMutability": "view",
      "type": "function"
    },
    {
      "inputs": [],
      "name": "owner",
      "outputs": [
        {
          "internalType": "address",
          "name": "",
          "type": "address"
        }
      ],
      "stateMutability": "view",
      "type": "function"
    },
    {
      "inputs": [
        {
          "internalType": "address[]",
          "name": "burners",
          "type": "address[]"
        }
      ],
      "name": "removeBurners",
      "outputs": [],
      "stateMutability": "nonpayable",
      "type": "function"
    },
    {
      "inputs": [
        {
          "internalType": "address[]",
          "name": "minters",
          "type": "address[]"
        }
      ],
      "name": "removeMinters",
      "outputs": [],
      "stateMutability": "nonpayable",
      "type": "function"
    },
    {
      "inputs": [],
      "name": "renounceOwnership",
      "outputs": [],
      "stateMutability": "nonpayable",
      "type": "function"
    },
    {
      "inputs": [
        {
          "internalType": "bytes32",
          "name": "role",
          "type": "bytes32"
        },
        {
          "internalType": "address",
          "name": "account",
          "type": "address"
        }
      ],
      "name": "renounceRole",
      "outputs": [],
      "stateMutability": "nonpayable",
      "type": "function"
    },
    {
      "inputs": [
        {
          "internalType": "bytes32",
          "name": "role",
          "type": "bytes32"
        },
        {
          "internalType": "address",
          "name": "account",
          "type": "address"
        }
      ],
      "name": "revokeRole",
      "outputs": [],
      "stateMutability": "nonpayable",
      "type": "function"
    },
    {
      "inputs": [
        {
          "internalType": "bytes4",
          "name": "interfaceId",
          "type": "bytes4"
        }
      ],
      "name": "supportsInterface",
      "outputs": [
        {
          "internalType": "bool",
          "name": "",
          "type": "bool"
        }
      ],
      "stateMutability": "view",
      "type": "function"
    },
    {
      "inputs": [],
      "name": "symbol",
      "outputs": [
        {
          "internalType": "string",
          "name": "",
          "type": "string"
        }
      ],
      "stateMutability": "view",
      "type": "function"
    },
    {
      "inputs": [],
      "name": "totalSupply",
      "outputs": [
        {
          "internalType": "uint256",
          "name": "",
          "type": "uint256"
        }
      ],
      "stateMutability": "view",
      "type": "function"
    },
    {
      "inputs": [
        {
          "internalType": "address",
          "name": "to",
          "type": "address"
        },
        {
          "internalType": "uint256",
          "name": "amount",
          "type": "uint256"
        }
      ],
      "name": "transfer",
      "outputs": [
        {
          "internalType": "bool",
          "name": "",
          "type": "bool"
        }
      ],
      "stateMutability": "nonpayable",
      "type": "function"
    },
    {
      "inputs": [
        {
          "internalType": "address",
          "name": "from",
          "type": "address"
        },
        {
          "internalType": "address",
          "name": "to",
          "type": "address"
        },
        {
          "internalType": "uint256",
          "name": "amount",
          "type": "uint256"
        }
      ],
      "name": "transferFrom",
      "outputs": [
        {
          "internalType": "bool",
          "name": "",
          "type": "bool"
        }
      ],
      "stateMutability": "nonpayable",
      "type": "function"
    },
    {
      "inputs": [
        {
          "internalType": "address",
          "name": "newOwner",
          "type": "address"
        }
      ],
      "name": "transferOwnership",
      "outputs": [],
      "stateMutability": "nonpayable",
      "type": "function"
    }
  ],
  "bytecode": "0x60a06040523480156200001157600080fd5b5060405162002641380380620026418339810160408190526200003491620009c7565b6001600160a01b0381166080528585620000576200005162000225565b62000241565b81516200006c90600490602085019062000809565b5080516200008290600590602084019062000809565b5050600780546001600160a01b0319166001600160a01b0386161790555083620000ac8462000291565b620000b8848262000314565b620000c5600085620003fa565b620000e06000805160206200262183398151915285620003fa565b6200010c7f3c11d16cbaffd01df69ce1c404f6340ee057498f5f00246190ea54220576a84885620003fa565b620001387f8502233096d909befbda0999bb8ea2f3a6be3c138b9fbf003752a4c8bce86f6c85620003fa565b6200015c600080516020620026218339815191526200015662000225565b620003fa565b6200018b7f3c11d16cbaffd01df69ce1c404f6340ee057498f5f00246190ea54220576a8486200015662000225565b620001ba7f8502233096d909befbda0999bb8ea2f3a6be3c138b9fbf003752a4c8bce86f6c6200015662000225565b60005b835181101562000217576200020460008051602062002621833981519152858381518110620001f057620001f062000b03565b60200260200101516200040660201b60201c565b6200020f8162000b2f565b9050620001bd565b505050505050505062000c8f565b60006200023c6200043460201b62000b881760201c565b905090565b600080546001600160a01b038381166001600160a01b0319831681178455604051919092169283917f8be0079c531659141344cd1fd0a4f28419497f9722a3daafe3b4186f6b6457e09190a35050565b6200029b6200046d565b6001600160a01b038116620003065760405162461bcd60e51b815260206004820152602660248201527f4f776e61626c653a206e6577206f776e657220697320746865207a65726f206160448201526564647265737360d01b60648201526084015b60405180910390fd5b620003118162000241565b50565b6001600160a01b0382166200036c5760405162461bcd60e51b815260206004820152601f60248201527f45524332303a206d696e7420746f20746865207a65726f2061646472657373006044820152606401620002fd565b806003600082825462000380919062000b4d565b90915550506001600160a01b03821660009081526001602052604081208054839290620003af90849062000b4d565b90915550506040518181526001600160a01b038316906000907fddf252ad1be2c89b69c2b068fc378daa952ba7f163c4a11628f55a4df523b3ef9060200160405180910390a35b5050565b620003f68282620004ed565b600082815260066020526040902060010154620004238162000593565b6200042f8383620004ed565b505050565b6080516000906001600160a01b031633141562000458575060131936013560601c90565b6200023c620005a860201b62000bcd1760201c565b6200047762000225565b6001600160a01b0316620004936000546001600160a01b031690565b6001600160a01b031614620004eb5760405162461bcd60e51b815260206004820181905260248201527f4f776e61626c653a2063616c6c6572206973206e6f7420746865206f776e65726044820152606401620002fd565b565b60008281526006602090815260408083206001600160a01b038516845290915290205460ff16620003f65760008281526006602090815260408083206001600160a01b03851684529091529020805460ff191660011790556200054f62000225565b6001600160a01b0316816001600160a01b0316837f2f8788117e7eff1d82e926ec794901d17c78024a50270940304540a733656f0d60405160405180910390a45050565b6200031181620005a262000225565b620005ac565b3390565b60008281526006602090815260408083206001600160a01b038516845290915290205460ff16620003f657620005f8816001600160a01b031660146200064960201b62000bd11760201c565b6200060e83602062000bd162000649821b17811c565b6040516020016200062192919062000b68565b60408051601f198184030181529082905262461bcd60e51b8252620002fd9160040162000be1565b606060006200065a83600262000c16565b6200066790600262000b4d565b6001600160401b03811115620006815762000681620008af565b6040519080825280601f01601f191660200182016040528015620006ac576020820181803683370190505b509050600360fc1b81600081518110620006ca57620006ca62000b03565b60200101906001600160f81b031916908160001a905350600f60fb1b81600181518110620006fc57620006fc62000b03565b60200101906001600160f81b031916908160001a90535060006200072284600262000c16565b6200072f90600162000b4d565b90505b6001811115620007b1576f181899199a1a9b1b9c1cb0b131b232b360811b85600f166010811062000767576200076762000b03565b1a60f81b82828151811062000780576200078062000b03565b60200101906001600160f81b031916908160001a90535060049490941c93620007a98162000c38565b905062000732565b508315620008025760405162461bcd60e51b815260206004820181905260248201527f537472696e67733a20686578206c656e67746820696e73756666696369656e746044820152606401620002fd565b9392505050565b828054620008179062000c52565b90600052602060002090601f0160209004810192826200083b576000855562000886565b82601f106200085657805160ff191683800117855562000886565b8280016001018555821562000886579182015b828111156200088657825182559160200191906001019062000869565b506200089492915062000898565b5090565b5b8082111562000894576000815560010162000899565b634e487b7160e01b600052604160045260246000fd5b604051601f8201601f191681016001600160401b0381118282101715620008f057620008f0620008af565b604052919050565b60005b8381101562000915578181015183820152602001620008fb565b8381111562000925576000848401525b50505050565b600082601f8301126200093d57600080fd5b81516001600160401b03811115620009595762000959620008af565b6200096e601f8201601f1916602001620008c5565b8181528460208386010111156200098457600080fd5b62000997826020830160208701620008f8565b949350505050565b6001600160a01b03811681146200031157600080fd5b8051620009c2816200099f565b919050565b60008060008060008060c08789031215620009e157600080fd5b86516001600160401b0380821115620009f957600080fd5b62000a078a838b016200092b565b975060209150818901518181111562000a1f57600080fd5b62000a2d8b828c016200092b565b97505060408901519550606089015162000a47816200099f565b60808a01519095508181111562000a5d57600080fd5b8901601f81018b1362000a6f57600080fd5b80518281111562000a845762000a84620008af565b8060051b925062000a97848401620008c5565b818152928201840192848101908d85111562000ab257600080fd5b928501925b8484101562000ae0578351925062000acf836200099f565b828252928501929085019062000ab7565b80975050505050505062000af760a08801620009b5565b90509295509295509295565b634e487b7160e01b600052603260045260246000fd5b634e487b7160e01b600052601160045260246000fd5b600060001982141562000b465762000b4662000b19565b5060010190565b6000821982111562000b635762000b6362000b19565b500190565b7f416363657373436f6e74726f6c3a206163636f756e742000000000000000000081526000835162000ba2816017850160208801620008f8565b7001034b99036b4b9b9b4b733903937b6329607d1b601791840191820152835162000bd5816028840160208801620008f8565b01602801949350505050565b602081526000825180602084015262000c02816040850160208701620008f8565b601f01601f19169190910160400192915050565b600081600019048311821515161562000c335762000c3362000b19565b500290565b60008162000c4a5762000c4a62000b19565b506000190190565b600181811c9082168062000c6757607f821691505b6020821081141562000c8957634e487b7160e01b600052602260045260246000fd5b50919050565b60805161196f62000cb2600039600081816103660152610b8c015261196f6000f3fe608060405234801561001057600080fd5b50600436106102065760003560e01c8063715018a61161011a578063a0712d68116100ad578063d53913931161007c578063d5391393146104ad578063d547741f146104d4578063dd62ed3e146104e7578063e47d419b14610520578063f2fde38b1461053357600080fd5b8063a0712d681461046c578063a217fddf1461047f578063a457c2d714610487578063a9059cbb1461049a57600080fd5b80638f32d59b116100e95780638f32d59b1461041057806391d148541461041857806395d89b41146104515780639dc29fac1461045957600080fd5b8063715018a6146103d257806371e2a657146103da578063745fffbe146103ed5780638da5cb5b146103f557600080fd5b8063282c51f31161019d578063395093511161016c57806339509351146103305780633ab84dd914610343578063572b6c05146103565780635fc1964f1461039657806370a08231146103a957600080fd5b8063282c51f3146102d25780632f2ff15d146102f9578063313ce5671461030e57806336568abe1461031d57600080fd5b806318160ddd116101d957806318160ddd14610263578063206b60f91461027557806323b872dd1461029c578063248a9ca3146102af57600080fd5b806301ffc9a71461020b57806306fdde0314610233578063095ea7b3146102485780631592b6071461025b575b600080fd5b61021e610219366004611561565b610546565b60405190151581526020015b60405180910390f35b61023b61057d565b60405161022a91906115b7565b61021e610256366004611606565b61060f565b61021e610631565b6003545b60405190815260200161022a565b6102677f8502233096d909befbda0999bb8ea2f3a6be3c138b9fbf003752a4c8bce86f6c81565b61021e6102aa366004611630565b610664565b6102676102bd36600461166c565b60009081526006602052604090206001015490565b6102677f3c11d16cbaffd01df69ce1c404f6340ee057498f5f00246190ea54220576a84881565b61030c610307366004611685565b6106a6565b005b6040516012815260200161022a565b61030c61032b366004611685565b6106d0565b61021e61033e366004611606565b610771565b61030c6103513660046116c7565b6107c3565b61021e61036436600461178c565b7f00000000000000000000000000000000000000000000000000000000000000006001600160a01b0390811691161490565b61030c6103a43660046116c7565b61084c565b6102676103b736600461178c565b6001600160a01b031660009081526001602052604090205490565b61030c6108b3565b61030c6103e83660046116c7565b6108c7565b61021e610919565b6000546040516001600160a01b03909116815260200161022a565b61021e610947565b61021e610426366004611685565b60009182526006602090815260408084206001600160a01b0393909316845291905290205460ff1690565b61023b61097b565b61030c610467366004611606565b61098a565b61030c61047a36600461166c565b6109be565b610267600081565b61021e610495366004611606565b6109dc565b61021e6104a8366004611606565b610a7b565b6102677f9f2df0fed2c77648de5860a4cc508cd0818c85b8b8a1ab4ceeef8d981c8956a681565b61030c6104e2366004611685565b610a93565b6102676104f53660046117a7565b6001600160a01b03918216600090815260026020908152604080832093909416825291909152205490565b61030c61052e3660046116c7565b610ab8565b61030c61054136600461178c565b610b12565b60006001600160e01b03198216637965db0b60e01b148061057757506301ffc9a760e01b6001600160e01b03198316145b92915050565b60606004805461058c906117d1565b80601f01602080910402602001604051908101604052809291908181526020018280546105b8906117d1565b80156106055780601f106105da57610100808354040283529160200191610605565b820191906000526020600020905b8154815290600101906020018083116105e857829003601f168201915b5050505050905090565b60008061061a610d81565b9050610627818585610d8b565b5060019392505050565b600061065f7f9f2df0fed2c77648de5860a4cc508cd0818c85b8b8a1ab4ceeef8d981c8956a6610426610d81565b905090565b60007f8502233096d909befbda0999bb8ea2f3a6be3c138b9fbf003752a4c8bce86f6c61069081610eaf565b61069b858585610ec0565b506001949350505050565b6000828152600660205260409020600101546106c181610eaf565b6106cb8383611090565b505050565b6106d8610d81565b6001600160a01b0316816001600160a01b0316146107635760405162461bcd60e51b815260206004820152602f60248201527f416363657373436f6e74726f6c3a2063616e206f6e6c792072656e6f756e636560448201527f20726f6c657320666f722073656c66000000000000000000000000000000000060648201526084015b60405180910390fd5b61076d8282611133565b5050565b60008061077c610d81565b90506106278185856107b485896001600160a01b03918216600090815260026020908152604080832093909416825291909152205490565b6107be9190611822565b610d8b565b7f3c11d16cbaffd01df69ce1c404f6340ee057498f5f00246190ea54220576a8486107ed81610eaf565b60005b82518110156106cb5761083c7f3c11d16cbaffd01df69ce1c404f6340ee057498f5f00246190ea54220576a84884838151811061082f5761082f61183a565b60200260200101516111d4565b61084581611850565b90506107f0565b6108546111de565b60005b815181101561076d576108a37f9f2df0fed2c77648de5860a4cc508cd0818c85b8b8a1ab4ceeef8d981c8956a68383815181106108965761089661183a565b6020026020010151610a93565b6108ac81611850565b9050610857565b6108bb6111de565b6108c56000611257565b565b60005b815181101561076d576109097f9f2df0fed2c77648de5860a4cc508cd0818c85b8b8a1ab4ceeef8d981c8956a683838151811061082f5761082f61183a565b61091281611850565b90506108ca565b600061065f7f3c11d16cbaffd01df69ce1c404f6340ee057498f5f00246190ea54220576a848610426610d81565b6000610951610d81565b6001600160a01b031661096c6000546001600160a01b031690565b6001600160a01b031614905090565b60606005805461058c906117d1565b7f3c11d16cbaffd01df69ce1c404f6340ee057498f5f00246190ea54220576a8486109b481610eaf565b6106cb83836112b4565b6109cf6109c9610d81565b82611402565b6109d93382611402565b50565b6000806109e7610d81565b6001600160a01b0381811660009081526002602090815260408083209389168352929052205490915083811015610a6e5760405162461bcd60e51b815260206004820152602560248201527f45524332303a2064656372656173656420616c6c6f77616e63652062656c6f77604482015264207a65726f60d81b606482015260840161075a565b61069b8286868403610d8b565b600080610a86610d81565b9050610627818585610ec0565b600082815260066020526040902060010154610aae81610eaf565b6106cb8383611133565b610ac06111de565b60005b815181101561076d57610b027f3c11d16cbaffd01df69ce1c404f6340ee057498f5f00246190ea54220576a8488383815181106108965761089661183a565b610b0b81611850565b9050610ac3565b610b1a6111de565b6001600160a01b038116610b7f5760405162461bcd60e51b815260206004820152602660248201527f4f776e61626c653a206e6577206f776e657220697320746865207a65726f206160448201526564647265737360d01b606482015260840161075a565b6109d981611257565b60007f00000000000000000000000000000000000000000000000000000000000000006001600160a01b0316331415610bc8575060131936013560601c90565b503390565b3390565b60606000610be083600261186b565b610beb906002611822565b67ffffffffffffffff811115610c0357610c036116b1565b6040519080825280601f01601f191660200182016040528015610c2d576020820181803683370190505b509050600360fc1b81600081518110610c4857610c4861183a565b60200101906001600160f81b031916908160001a905350600f60fb1b81600181518110610c7757610c7761183a565b60200101906001600160f81b031916908160001a9053506000610c9b84600261186b565b610ca6906001611822565b90505b6001811115610d2b577f303132333435363738396162636465660000000000000000000000000000000085600f1660108110610ce757610ce761183a565b1a60f81b828281518110610cfd57610cfd61183a565b60200101906001600160f81b031916908160001a90535060049490941c93610d248161188a565b9050610ca9565b508315610d7a5760405162461bcd60e51b815260206004820181905260248201527f537472696e67733a20686578206c656e67746820696e73756666696369656e74604482015260640161075a565b9392505050565b600061065f610b88565b6001600160a01b038316610ded5760405162461bcd60e51b8152602060048201526024808201527f45524332303a20617070726f76652066726f6d20746865207a65726f206164646044820152637265737360e01b606482015260840161075a565b6001600160a01b038216610e4e5760405162461bcd60e51b815260206004820152602260248201527f45524332303a20617070726f766520746f20746865207a65726f206164647265604482015261737360f01b606482015260840161075a565b6001600160a01b0383811660008181526002602090815260408083209487168084529482529182902085905590518481527f8c5be1e5ebec7d5bd14f71427d1e84f3dd0314c0f7b2291e5b200ac8c7c3b925910160405180910390a3505050565b6109d981610ebb610d81565b6114e1565b6001600160a01b038316610f245760405162461bcd60e51b815260206004820152602560248201527f45524332303a207472616e736665722066726f6d20746865207a65726f206164604482015264647265737360d81b606482015260840161075a565b6001600160a01b038216610f865760405162461bcd60e51b815260206004820152602360248201527f45524332303a207472616e7366657220746f20746865207a65726f206164647260448201526265737360e81b606482015260840161075a565b6001600160a01b03831660009081526001602052604090205481811015610ffe5760405162461bcd60e51b815260206004820152602660248201527f45524332303a207472616e7366657220616d6f756e7420657863656564732062604482015265616c616e636560d01b606482015260840161075a565b6001600160a01b03808516600090815260016020526040808220858503905591851681529081208054849290611035908490611822565b92505081905550826001600160a01b0316846001600160a01b03167fddf252ad1be2c89b69c2b068fc378daa952ba7f163c4a11628f55a4df523b3ef8460405161108191815260200190565b60405180910390a35b50505050565b60008281526006602090815260408083206001600160a01b038516845290915290205460ff1661076d5760008281526006602090815260408083206001600160a01b03851684529091529020805460ff191660011790556110ef610d81565b6001600160a01b0316816001600160a01b0316837f2f8788117e7eff1d82e926ec794901d17c78024a50270940304540a733656f0d60405160405180910390a45050565b60008281526006602090815260408083206001600160a01b038516845290915290205460ff161561076d5760008281526006602090815260408083206001600160a01b03851684529091529020805460ff19169055611190610d81565b6001600160a01b0316816001600160a01b0316837ff6391f5c32d9c69d2a47ea670b442974b53935d1edc7fd64eb21e047a839171b60405160405180910390a45050565b61076d8282611090565b6111e6610d81565b6001600160a01b03166112016000546001600160a01b031690565b6001600160a01b0316146108c55760405162461bcd60e51b815260206004820181905260248201527f4f776e61626c653a2063616c6c6572206973206e6f7420746865206f776e6572604482015260640161075a565b600080546001600160a01b0383811673ffffffffffffffffffffffffffffffffffffffff19831681178455604051919092169283917f8be0079c531659141344cd1fd0a4f28419497f9722a3daafe3b4186f6b6457e09190a35050565b6001600160a01b0382166113145760405162461bcd60e51b815260206004820152602160248201527f45524332303a206275726e2066726f6d20746865207a65726f206164647265736044820152607360f81b606482015260840161075a565b6001600160a01b038216600090815260016020526040902054818110156113885760405162461bcd60e51b815260206004820152602260248201527f45524332303a206275726e20616d6f756e7420657863656564732062616c616e604482015261636560f01b606482015260840161075a565b6001600160a01b03831660009081526001602052604081208383039055600380548492906113b79084906118a1565b90915550506040518281526000906001600160a01b038516907fddf252ad1be2c89b69c2b068fc378daa952ba7f163c4a11628f55a4df523b3ef9060200160405180910390a3505050565b6001600160a01b0382166114585760405162461bcd60e51b815260206004820152601f60248201527f45524332303a206d696e7420746f20746865207a65726f206164647265737300604482015260640161075a565b806003600082825461146a9190611822565b90915550506001600160a01b03821660009081526001602052604081208054839290611497908490611822565b90915550506040518181526001600160a01b038316906000907fddf252ad1be2c89b69c2b068fc378daa952ba7f163c4a11628f55a4df523b3ef9060200160405180910390a35050565b60008281526006602090815260408083206001600160a01b038516845290915290205460ff1661076d5761151f816001600160a01b03166014610bd1565b61152a836020610bd1565b60405160200161153b9291906118b8565b60408051601f198184030181529082905262461bcd60e51b825261075a916004016115b7565b60006020828403121561157357600080fd5b81356001600160e01b031981168114610d7a57600080fd5b60005b838110156115a657818101518382015260200161158e565b8381111561108a5750506000910152565b60208152600082518060208401526115d681604085016020870161158b565b601f01601f19169190910160400192915050565b80356001600160a01b038116811461160157600080fd5b919050565b6000806040838503121561161957600080fd5b611622836115ea565b946020939093013593505050565b60008060006060848603121561164557600080fd5b61164e846115ea565b925061165c602085016115ea565b9150604084013590509250925092565b60006020828403121561167e57600080fd5b5035919050565b6000806040838503121561169857600080fd5b823591506116a8602084016115ea565b90509250929050565b634e487b7160e01b600052604160045260246000fd5b600060208083850312156116da57600080fd5b823567ffffffffffffffff808211156116f257600080fd5b818501915085601f83011261170657600080fd5b813581811115611718576117186116b1565b8060051b604051601f19603f8301168101818110858211171561173d5761173d6116b1565b60405291825284820192508381018501918883111561175b57600080fd5b938501935b8285101561178057611771856115ea565b84529385019392850192611760565b98975050505050505050565b60006020828403121561179e57600080fd5b610d7a826115ea565b600080604083850312156117ba57600080fd5b6117c3836115ea565b91506116a8602084016115ea565b600181811c908216806117e557607f821691505b6020821081141561180657634e487b7160e01b600052602260045260246000fd5b50919050565b634e487b7160e01b600052601160045260246000fd5b600082198211156118355761183561180c565b500190565b634e487b7160e01b600052603260045260246000fd5b60006000198214156118645761186461180c565b5060010190565b60008160001904831182151516156118855761188561180c565b500290565b6000816118995761189961180c565b506000190190565b6000828210156118b3576118b361180c565b500390565b7f416363657373436f6e74726f6c3a206163636f756e74200000000000000000008152600083516118f081601785016020880161158b565b7f206973206d697373696e6720726f6c6520000000000000000000000000000000601791840191820152835161192d81602884016020880161158b565b0160280194935050505056fea2646970667358221220af3ecfef87201c17212297044f1d91e040b5a942c37c8c6bdc72e7f1042061b664736f6c634300080c00339f2df0fed2c77648de5860a4cc508cd0818c85b8b8a1ab4ceeef8d981c8956a6",
  "linkReferences": {},
  "deployedLinkReferences": {}
}