{
  "_format": "hh-sol-artifact-1",
  "contractName": "ERC721Token",
  "sourceName": "contracts/legit/ERC721Token.sol",
  "abi": [
    {
      "inputs": [
        {
          "internalType": "string",
          "name": "token_name",
          "type": "string"
        },
        {
          "internalType": "string",
          "name": "token_symbol",
          "type": "string"
        },
        {
          "internalType": "address",
          "name": "default_owner",
          "type": "address"
        },
        {
          "internalType": "contract MinimalForwarder",
          "name": "forwarder",
          "type": "address"
        }
      ],
      "stateMutability": "nonpayable",
      "type": "constructor"
    },
    {
      "anonymous": false,
      "inputs": [
        {
          "indexed": true,
          "internalType": "address",
          "name": "owner",
          "type": "address"
        },
        {
          "indexed": true,
          "internalType": "address",
          "name": "approved",
          "type": "address"
        },
        {
          "indexed": true,
          "internalType": "uint256",
          "name": "tokenId",
          "type": "uint256"
        }
      ],
      "name": "Approval",
      "type": "event"
    },
    {
      "anonymous": false,
      "inputs": [
        {
          "indexed": true,
          "internalType": "address",
          "name": "owner",
          "type": "address"
        },
        {
          "indexed": true,
          "internalType": "address",
          "name": "operator",
          "type": "address"
        },
        {
          "indexed": false,
          "internalType": "bool",
          "name": "approved",
          "type": "bool"
        }
      ],
      "name": "ApprovalForAll",
      "type": "event"
    },
    {
      "anonymous": false,
      "inputs": [
        {
          "indexed": true,
          "internalType": "address",
          "name": "previousOwner",
          "type": "address"
        },
        {
          "indexed": true,
          "internalType": "address",
          "name": "newOwner",
          "type": "address"
        }
      ],
      "name": "OwnershipTransferred",
      "type": "event"
    },
    {
      "anonymous": false,
      "inputs": [
        {
          "indexed": true,
          "internalType": "bytes32",
          "name": "role",
          "type": "bytes32"
        },
        {
          "indexed": true,
          "internalType": "bytes32",
          "name": "previousAdminRole",
          "type": "bytes32"
        },
        {
          "indexed": true,
          "internalType": "bytes32",
          "name": "newAdminRole",
          "type": "bytes32"
        }
      ],
      "name": "RoleAdminChanged",
      "type": "event"
    },
    {
      "anonymous": false,
      "inputs": [
        {
          "indexed": true,
          "internalType": "bytes32",
          "name": "role",
          "type": "bytes32"
        },
        {
          "indexed": true,
          "internalType": "address",
          "name": "account",
          "type": "address"
        },
        {
          "indexed": true,
          "internalType": "address",
          "name": "sender",
          "type": "address"
        }
      ],
      "name": "RoleGranted",
      "type": "event"
    },
    {
      "anonymous": false,
      "inputs": [
        {
          "indexed": true,
          "internalType": "bytes32",
          "name": "role",
          "type": "bytes32"
        },
        {
          "indexed": true,
          "internalType": "address",
          "name": "account",
          "type": "address"
        },
        {
          "indexed": true,
          "internalType": "address",
          "name": "sender",
          "type": "address"
        }
      ],
      "name": "RoleRevoked",
      "type": "event"
    },
    {
      "anonymous": false,
      "inputs": [
        {
          "indexed": true,
          "internalType": "address",
          "name": "from",
          "type": "address"
        },
        {
          "indexed": true,
          "internalType": "address",
          "name": "to",
          "type": "address"
        },
        {
          "indexed": true,
          "internalType": "uint256",
          "name": "tokenId",
          "type": "uint256"
        }
      ],
      "name": "Transfer",
      "type": "event"
    },
    {
      "inputs": [],
      "name": "BURNER_ROLE",
      "outputs": [
        {
          "internalType": "bytes32",
          "name": "",
          "type": "bytes32"
        }
      ],
      "stateMutability": "view",
      "type": "function"
    },
    {
      "inputs": [],
      "name": "DEFAULT_ADMIN_ROLE",
      "outputs": [
        {
          "internalType": "bytes32",
          "name": "",
          "type": "bytes32"
        }
      ],
      "stateMutability": "view",
      "type": "function"
    },
    {
      "inputs": [
        {
          "internalType": "address[]",
          "name": "burners",
          "type": "address[]"
        }
      ],
      "name": "addBurners",
      "outputs": [],
      "stateMutability": "nonpayable",
      "type": "function"
    },
    {
      "inputs": [
        {
          "internalType": "address[]",
          "name": "minters",
          "type": "address[]"
        }
      ],
      "name": "addMinters",
      "outputs": [],
      "stateMutability": "nonpayable",
      "type": "function"
    },
    {
      "inputs": [
        {
          "internalType": "address",
          "name": "to",
          "type": "address"
        },
        {
          "internalType": "uint256",
          "name": "tokenId",
          "type": "uint256"
        }
      ],
      "name": "approve",
      "outputs": [],
      "stateMutability": "nonpayable",
      "type": "function"
    },
    {
      "inputs": [
        {
          "internalType": "address",
          "name": "owner",
          "type": "address"
        }
      ],
      "name": "balanceOf",
      "outputs": [
        {
          "internalType": "uint256",
          "name": "",
          "type": "uint256"
        }
      ],
      "stateMutability": "view",
      "type": "function"
    },
    {
      "inputs": [
        {
          "internalType": "uint256",
          "name": "tokenId",
          "type": "uint256"
        }
      ],
      "name": "burn",
      "outputs": [],
      "stateMutability": "nonpayable",
      "type": "function"
    },
    {
      "inputs": [],
      "name": "contractType",
      "outputs": [
        {
          "internalType": "bytes32",
          "name": "",
          "type": "bytes32"
        }
      ],
      "stateMutability": "pure",
      "type": "function"
    },
    {
      "inputs": [],
      "name": "contractVersion",
      "outputs": [
        {
          "internalType": "uint8",
          "name": "",
          "type": "uint8"
        }
      ],
      "stateMutability": "pure",
      "type": "function"
    },
    {
      "inputs": [],
      "name": "fetchAllNFTs",
      "outputs": [
        {
          "components": [
            {
              "internalType": "uint256",
              "name": "tokenId",
              "type": "uint256"
            },
            {
              "internalType": "address",
              "name": "owner",
              "type": "address"
            },
            {
              "internalType": "uint256",
              "name": "price",
              "type": "uint256"
            }
          ],
          "internalType": "struct ERC721Token.MarketItem[]",
          "name": "",
          "type": "tuple[]"
        }
      ],
      "stateMutability": "view",
      "type": "function"
    },
    {
      "inputs": [
        {
          "internalType": "uint256",
          "name": "tokenId",
          "type": "uint256"
        }
      ],
      "name": "getApproved",
      "outputs": [
        {
          "internalType": "address",
          "name": "",
          "type": "address"
        }
      ],
      "stateMutability": "view",
      "type": "function"
    },
    {
      "inputs": [
        {
          "internalType": "bytes32",
          "name": "role",
          "type": "bytes32"
        }
      ],
      "name": "getRoleAdmin",
      "outputs": [
        {
          "internalType": "bytes32",
          "name": "",
          "type": "bytes32"
        }
      ],
      "stateMutability": "view",
      "type": "function"
    },
    {
      "inputs": [
        {
          "internalType": "bytes32",
          "name": "role",
          "type": "bytes32"
        },
        {
          "internalType": "address",
          "name": "account",
          "type": "address"
        }
      ],
      "name": "grantRole",
      "outputs": [],
      "stateMutability": "nonpayable",
      "type": "function"
    },
    {
      "inputs": [],
      "name": "hasBurnerRole",
      "outputs": [
        {
          "internalType": "bool",
          "name": "",
          "type": "bool"
        }
      ],
      "stateMutability": "view",
      "type": "function"
    },
    {
      "inputs": [],
      "name": "hasMinterRole",
      "outputs": [
        {
          "internalType": "bool",
          "name": "",
          "type": "bool"
        }
      ],
      "stateMutability": "view",
      "type": "function"
    },
    {
      "inputs": [
        {
          "internalType": "bytes32",
          "name": "role",
          "type": "bytes32"
        },
        {
          "internalType": "address",
          "name": "account",
          "type": "address"
        }
      ],
      "name": "hasRole",
      "outputs": [
        {
          "internalType": "bool",
          "name": "",
          "type": "bool"
        }
      ],
      "stateMutability": "view",
      "type": "function"
    },
    {
      "inputs": [
        {
          "internalType": "address",
          "name": "owner",
          "type": "address"
        },
        {
          "internalType": "address",
          "name": "operator",
          "type": "address"
        }
      ],
      "name": "isApprovedForAll",
      "outputs": [
        {
          "internalType": "bool",
          "name": "",
          "type": "bool"
        }
      ],
      "stateMutability": "view",
      "type": "function"
    },
    {
      "inputs": [],
      "name": "isOwner",
      "outputs": [
        {
          "internalType": "bool",
          "name": "",
          "type": "bool"
        }
      ],
      "stateMutability": "view",
      "type": "function"
    },
    {
      "inputs": [
        {
          "internalType": "address",
          "name": "forwarder",
          "type": "address"
        }
      ],
      "name": "isTrustedForwarder",
      "outputs": [
        {
          "internalType": "bool",
          "name": "",
          "type": "bool"
        }
      ],
      "stateMutability": "view",
      "type": "function"
    },
    {
      "inputs": [
        {
          "internalType": "string",
          "name": "_tokenURI",
          "type": "string"
        },
        {
          "internalType": "uint256",
          "name": "_price",
          "type": "uint256"
        }
      ],
      "name": "mint",
      "outputs": [
        {
          "internalType": "uint256",
          "name": "",
          "type": "uint256"
        }
      ],
      "stateMutability": "nonpayable",
      "type": "function"
    },
    {
      "inputs": [],
      "name": "name",
      "outputs": [
        {
          "internalType": "string",
          "name": "",
          "type": "string"
        }
      ],
      "stateMutability": "view",
      "type": "function"
    },
    {
      "inputs": [],
      "name": "owner",
      "outputs": [
        {
          "internalType": "address",
          "name": "",
          "type": "address"
        }
      ],
      "stateMutability": "view",
      "type": "function"
    },
    {
      "inputs": [
        {
          "internalType": "uint256",
          "name": "tokenId",
          "type": "uint256"
        }
      ],
      "name": "ownerOf",
      "outputs": [
        {
          "internalType": "address",
          "name": "",
          "type": "address"
        }
      ],
      "stateMutability": "view",
      "type": "function"
    },
    {
      "inputs": [
        {
          "internalType": "uint256",
          "name": "",
          "type": "uint256"
        }
      ],
      "name": "price",
      "outputs": [
        {
          "internalType": "uint256",
          "name": "",
          "type": "uint256"
        }
      ],
      "stateMutability": "view",
      "type": "function"
    },
    {
      "inputs": [
        {
          "internalType": "address[]",
          "name": "burners",
          "type": "address[]"
        }
      ],
      "name": "removeBurners",
      "outputs": [],
      "stateMutability": "nonpayable",
      "type": "function"
    },
    {
      "inputs": [
        {
          "internalType": "address[]",
          "name": "minters",
          "type": "address[]"
        }
      ],
      "name": "removeMinters",
      "outputs": [],
      "stateMutability": "nonpayable",
      "type": "function"
    },
    {
      "inputs": [],
      "name": "renounceOwnership",
      "outputs": [],
      "stateMutability": "nonpayable",
      "type": "function"
    },
    {
      "inputs": [
        {
          "internalType": "bytes32",
          "name": "role",
          "type": "bytes32"
        },
        {
          "internalType": "address",
          "name": "account",
          "type": "address"
        }
      ],
      "name": "renounceRole",
      "outputs": [],
      "stateMutability": "nonpayable",
      "type": "function"
    },
    {
      "inputs": [
        {
          "internalType": "bytes32",
          "name": "role",
          "type": "bytes32"
        },
        {
          "internalType": "address",
          "name": "account",
          "type": "address"
        }
      ],
      "name": "revokeRole",
      "outputs": [],
      "stateMutability": "nonpayable",
      "type": "function"
    },
    {
      "inputs": [
        {
          "internalType": "address",
          "name": "from",
          "type": "address"
        },
        {
          "internalType": "address",
          "name": "to",
          "type": "address"
        },
        {
          "internalType": "uint256",
          "name": "tokenId",
          "type": "uint256"
        }
      ],
      "name": "safeTransferFrom",
      "outputs": [],
      "stateMutability": "nonpayable",
      "type": "function"
    },
    {
      "inputs": [
        {
          "internalType": "address",
          "name": "from",
          "type": "address"
        },
        {
          "internalType": "address",
          "name": "to",
          "type": "address"
        },
        {
          "internalType": "uint256",
          "name": "tokenId",
          "type": "uint256"
        },
        {
          "internalType": "bytes",
          "name": "data",
          "type": "bytes"
        }
      ],
      "name": "safeTransferFrom",
      "outputs": [],
      "stateMutability": "nonpayable",
      "type": "function"
    },
    {
      "inputs": [
        {
          "internalType": "address",
          "name": "operator",
          "type": "address"
        },
        {
          "internalType": "bool",
          "name": "approved",
          "type": "bool"
        }
      ],
      "name": "setApprovalForAll",
      "outputs": [],
      "stateMutability": "nonpayable",
      "type": "function"
    },
    {
      "inputs": [
        {
          "internalType": "address",
          "name": "_newOwner",
          "type": "address"
        }
      ],
      "name": "setOwner",
      "outputs": [],
      "stateMutability": "nonpayable",
      "type": "function"
    },
    {
      "inputs": [
        {
          "internalType": "bytes4",
          "name": "interfaceId",
          "type": "bytes4"
        }
      ],
      "name": "supportsInterface",
      "outputs": [
        {
          "internalType": "bool",
          "name": "",
          "type": "bool"
        }
      ],
      "stateMutability": "view",
      "type": "function"
    },
    {
      "inputs": [],
      "name": "symbol",
      "outputs": [
        {
          "internalType": "string",
          "name": "",
          "type": "string"
        }
      ],
      "stateMutability": "view",
      "type": "function"
    },
    {
      "inputs": [
        {
          "internalType": "uint256",
          "name": "tokenId",
          "type": "uint256"
        }
      ],
      "name": "tokenURI",
      "outputs": [
        {
          "internalType": "string",
          "name": "",
          "type": "string"
        }
      ],
      "stateMutability": "view",
      "type": "function"
    },
    {
      "inputs": [
        {
          "internalType": "address",
          "name": "from",
          "type": "address"
        },
        {
          "internalType": "address",
          "name": "to",
          "type": "address"
        },
        {
          "internalType": "uint256",
          "name": "tokenId",
          "type": "uint256"
        }
      ],
      "name": "transferFrom",
      "outputs": [],
      "stateMutability": "nonpayable",
      "type": "function"
    },
    {
      "inputs": [
        {
          "internalType": "uint256",
          "name": "_id",
          "type": "uint256"
        },
        {
          "internalType": "address",
          "name": "to",
          "type": "address"
        }
      ],
      "name": "transferNFT",
      "outputs": [],
      "stateMutability": "payable",
      "type": "function"
    },
    {
      "inputs": [
        {
          "internalType": "uint256",
          "name": "_id",
          "type": "uint256"
        },
        {
          "internalType": "address",
          "name": "from",
          "type": "address"
        },
        {
          "internalType": "address",
          "name": "to",
          "type": "address"
        }
      ],
      "name": "transferNFTFrom",
      "outputs": [],
      "stateMutability": "payable",
      "type": "function"
    },
    {
      "inputs": [
        {
          "internalType": "address",
          "name": "newOwner",
          "type": "address"
        }
      ],
      "name": "transferOwnership",
      "outputs": [],
      "stateMutability": "nonpayable",
      "type": "function"
    }
  ],
  "bytecode": "0x60a06040523480156200001157600080fd5b50604051620032f3380380620032f3833981016040819052620000349162000588565b6001600160a01b03811660805283836200005762000051620001b3565b620001cf565b81516200006c906001906020850190620003fc565b50805162000082906002906020840190620003fc565b5050600a80546001600160a01b0319166001600160a01b03851617905550620000ad6000836200021f565b620000c8600080516020620032d3833981519152836200021f565b620000e3600080516020620032b3833981519152836200021f565b6200010f7f3c11d16cbaffd01df69ce1c404f6340ee057498f5f00246190ea54220576a848836200021f565b6200012b600080516020620032b383398151915260006200021f565b6200014f600080516020620032d383398151915262000149620001b3565b6200021f565b6200017e7f3c11d16cbaffd01df69ce1c404f6340ee057498f5f00246190ea54220576a84862000149620001b3565b6200019c600080516020620032b383398151915262000149620001b3565b620001a98260016200022f565b5050505062000659565b6000620001ca6200024560201b620014461760201c565b905090565b600080546001600160a01b038381166001600160a01b0319831681178455604051919092169283917f8be0079c531659141344cd1fd0a4f28419497f9722a3daafe3b4186f6b6457e09190a35050565b6200022b82826200027e565b5050565b6200022b6200023d620001b3565b838362000324565b6080516000906001600160a01b031633141562000269575060131936013560601c90565b620001ca620003f860201b6200148b1760201c565b60008281526008602090815260408083206001600160a01b038516845290915290205460ff166200022b5760008281526008602090815260408083206001600160a01b03851684529091529020805460ff19166001179055620002e0620001b3565b6001600160a01b0316816001600160a01b0316837f2f8788117e7eff1d82e926ec794901d17c78024a50270940304540a733656f0d60405160405180910390a45050565b816001600160a01b0316836001600160a01b031614156200038b5760405162461bcd60e51b815260206004820152601960248201527f4552433732313a20617070726f766520746f2063616c6c657200000000000000604482015260640160405180910390fd5b6001600160a01b03838116600081815260066020908152604080832094871680845294825291829020805460ff191686151590811790915591519182527f17307eab39ab6107e8899845ad3d59bd9653f200f220920489ca2b5937696c31910160405180910390a3505050565b3390565b8280546200040a906200061c565b90600052602060002090601f0160209004810192826200042e576000855562000479565b82601f106200044957805160ff191683800117855562000479565b8280016001018555821562000479579182015b82811115620004795782518255916020019190600101906200045c565b50620004879291506200048b565b5090565b5b808211156200048757600081556001016200048c565b634e487b7160e01b600052604160045260246000fd5b600082601f830112620004ca57600080fd5b81516001600160401b0380821115620004e757620004e7620004a2565b604051601f8301601f19908116603f01168101908282118183101715620005125762000512620004a2565b816040528381526020925086838588010111156200052f57600080fd5b600091505b8382101562000553578582018301518183018401529082019062000534565b83821115620005655760008385830101525b9695505050505050565b6001600160a01b03811681146200058557600080fd5b50565b600080600080608085870312156200059f57600080fd5b84516001600160401b0380821115620005b757600080fd5b620005c588838901620004b8565b95506020870151915080821115620005dc57600080fd5b50620005eb87828801620004b8565b9350506040850151620005fe816200056f565b606086015190925062000611816200056f565b939692955090935050565b600181811c908216806200063157607f821691505b602082108114156200065357634e487b7160e01b600052602260045260246000fd5b50919050565b608051612c376200067c600039600081816104e4015261144a0152612c376000f3fe60806040526004361061023b5760003560e01c806370a082311161012e578063a0a8e460116100ab578063cb2ef6f71161006f578063cb2ef6f7146106fa578063d547741f1461071b578063e47d419b1461073b578063e985e9c51461075b578063f2fde38b146107a457600080fd5b8063a0a8e46014610669578063a217fddf14610685578063a22cb4651461069a578063b88d4fde146106ba578063c87b56dd146106da57600080fd5b80638da5cb5b116100f25780638da5cb5b146105d15780638f32d59b146105e65780639036c050146105fb57806391d148541461060e57806395d89b411461065457600080fd5b806370a0823114610554578063715018a61461057457806371e2a65714610589578063745fffbe146105a95780638c71db58146105be57600080fd5b8063282c51f3116101bc57806342842e0e1161018057806342842e0e1461048757806342966c68146104a7578063572b6c05146104c75780635fc1964f146105145780636352211e1461053457600080fd5b8063282c51f3146103d15780632f2ff15d1461040557806336568abe146104255780633ab84dd9146104455780633f0e317b1461046557600080fd5b806313af40351161020357806313af40351461031f5780631592b6071461033f57806323b872dd14610354578063248a9ca31461037457806326a49e37146103a457600080fd5b806301ffc9a714610240578063056b01ce1461027557806306fdde03146102a3578063081812fc146102c5578063095ea7b3146102fd575b600080fd5b34801561024c57600080fd5b5061026061025b366004612544565b6107c4565b60405190151581526020015b60405180910390f35b34801561028157600080fd5b50610295610290366004612600565b6107d5565b60405190815260200161026c565b3480156102af57600080fd5b506102b8610849565b60405161026c91906126b1565b3480156102d157600080fd5b506102e56102e03660046126c4565b6108db565b6040516001600160a01b03909116815260200161026c565b34801561030957600080fd5b5061031d6103183660046126f9565b610902565b005b34801561032b57600080fd5b5061031d61033a366004612723565b610a2f565b34801561034b57600080fd5b50610260610ad5565b34801561036057600080fd5b5061031d61036f36600461273e565b610b08565b34801561038057600080fd5b5061029561038f3660046126c4565b60009081526008602052604090206001015490565b3480156103b057600080fd5b506102956103bf3660046126c4565b600b6020526000908152604090205481565b3480156103dd57600080fd5b506102957f3c11d16cbaffd01df69ce1c404f6340ee057498f5f00246190ea54220576a84881565b34801561041157600080fd5b5061031d61042036600461277a565b610b87565b34801561043157600080fd5b5061031d61044036600461277a565b610bac565b34801561045157600080fd5b5061031d6104603660046127a6565b610c44565b34801561047157600080fd5b5061047a610ccd565b60405161026c9190612853565b34801561049357600080fd5b5061031d6104a236600461273e565b610e4e565b3480156104b357600080fd5b5061031d6104c23660046126c4565b610e69565b3480156104d357600080fd5b506102606104e2366004612723565b7f00000000000000000000000000000000000000000000000000000000000000006001600160a01b0390811691161490565b34801561052057600080fd5b5061031d61052f3660046127a6565b610e9c565b34801561054057600080fd5b506102e561054f3660046126c4565b610f03565b34801561056057600080fd5b5061029561056f366004612723565b610f68565b34801561058057600080fd5b5061031d610fee565b34801561059557600080fd5b5061031d6105a43660046127a6565b611002565b3480156105b557600080fd5b5061026061107e565b61031d6105cc3660046128b5565b6110ac565b3480156105dd57600080fd5b506102e56110e7565b3480156105f257600080fd5b5061026061113e565b61031d61060936600461277a565b611168565b34801561061a57600080fd5b5061026061062936600461277a565b60009182526008602090815260408084206001600160a01b0393909316845291905290205460ff1690565b34801561066057600080fd5b506102b86111a4565b34801561067557600080fd5b506040516001815260200161026c565b34801561069157600080fd5b50610295600081565b3480156106a657600080fd5b5061031d6106b53660046128f1565b6111b3565b3480156106c657600080fd5b5061031d6106d536600461292d565b6111c5565b3480156106e657600080fd5b506102b86106f53660046126c4565b611245565b34801561070657600080fd5b506a22a9219b9918aa37b5b2b760a91b610295565b34801561072757600080fd5b5061031d61073636600461277a565b61134e565b34801561074757600080fd5b5061031d6107563660046127a6565b611373565b34801561076757600080fd5b506102606107763660046129a9565b6001600160a01b03918216600090815260066020908152604080832093909416825291909152205460ff1690565b3480156107b057600080fd5b5061031d6107bf366004612723565b6113cd565b60006107cf8261148f565b92915050565b60007f9f2df0fed2c77648de5860a4cc508cd0818c85b8b8a1ab4ceeef8d981c8956a6610801816114b4565b61080f600980546001019055565b600061081a60095490565b6000818152600b60205260409020859055905061083730826114c5565b6108418186611613565b949350505050565b606060018054610858906129d3565b80601f0160208091040260200160405190810160405280929190818152602001828054610884906129d3565b80156108d15780601f106108a6576101008083540402835291602001916108d1565b820191906000526020600020905b8154815290600101906020018083116108b457829003601f168201915b5050505050905090565b60006108e6826116ad565b506000908152600560205260409020546001600160a01b031690565b600061090d82610f03565b9050806001600160a01b0316836001600160a01b031614156109805760405162461bcd60e51b815260206004820152602160248201527f4552433732313a20617070726f76616c20746f2063757272656e74206f776e656044820152603960f91b60648201526084015b60405180910390fd5b806001600160a01b0316610992611711565b6001600160a01b031614806109ae57506109ae81610776611711565b610a205760405162461bcd60e51b815260206004820152603e60248201527f4552433732313a20617070726f76652063616c6c6572206973206e6f7420746f60448201527f6b656e206f776e6572206e6f7220617070726f76656420666f7220616c6c00006064820152608401610977565b610a2a838361171b565b505050565b6000610a3a816114b4565b6001600160a01b03821660009081527f5eff886ea0ce6ca488a3d6e336d6c0f75f46d19b42c06ce5ee98e42c96d256c7602052604090205460ff16610aaa5760405162461bcd60e51b815260206004820152600660248201526510a0a226a4a760d11b6044820152606401610977565b600a80546001600160a01b0319166001600160a01b038416908117909155610ad1906113cd565b5050565b6000610b037f9f2df0fed2c77648de5860a4cc508cd0818c85b8b8a1ab4ceeef8d981c8956a6610629611711565b905090565b610b19610b13611711565b82611789565b610b7c5760405162461bcd60e51b815260206004820152602e60248201527f4552433732313a2063616c6c6572206973206e6f7420746f6b656e206f776e6560448201526d1c881b9bdc88185c1c1c9bdd995960921b6064820152608401610977565b610a2a838383611807565b600082815260086020526040902060010154610ba2816114b4565b610a2a83836119ae565b610bb4611711565b6001600160a01b0316816001600160a01b031614610c3a5760405162461bcd60e51b815260206004820152602f60248201527f416363657373436f6e74726f6c3a2063616e206f6e6c792072656e6f756e636560448201527f20726f6c657320666f722073656c6600000000000000000000000000000000006064820152608401610977565b610ad18282611a51565b7f3c11d16cbaffd01df69ce1c404f6340ee057498f5f00246190ea54220576a848610c6e816114b4565b60005b8251811015610a2a57610cbd7f3c11d16cbaffd01df69ce1c404f6340ee057498f5f00246190ea54220576a848848381518110610cb057610cb0612a0e565b6020026020010151611af2565b610cc681612a3a565b9050610c71565b60606000610cda60095490565b9050600060015b828111610d25576000818152600360205260409020546001600160a01b031615610d1357610d10600183612a55565b91505b80610d1d81612a3a565b915050610ce1565b5060008167ffffffffffffffff811115610d4157610d41612561565b604051908082528060200260200182016040528015610d9f57816020015b610d8c60405180606001604052806000815260200160006001600160a01b03168152602001600081525090565b815260200190600190039081610d5f5790505b5060009250905060015b838111610e46576000818152600360205260409020546001600160a01b031615610e34576040518060600160405280828152602001610de783610f03565b6001600160a01b031681526000838152600b60209081526040909120549101528251839085908110610e1b57610e1b612a0e565b6020908102919091010152610e31600184612a55565b92505b80610e3e81612a3a565b915050610da9565b509392505050565b610a2a838383604051806020016040528060008152506111c5565b7f3c11d16cbaffd01df69ce1c404f6340ee057498f5f00246190ea54220576a848610e93816114b4565b610ad182611afc565b610ea4611b3c565b60005b8151811015610ad157610ef37f9f2df0fed2c77648de5860a4cc508cd0818c85b8b8a1ab4ceeef8d981c8956a6838381518110610ee657610ee6612a0e565b602002602001015161134e565b610efc81612a3a565b9050610ea7565b6000818152600360205260408120546001600160a01b0316806107cf5760405162461bcd60e51b815260206004820152601860248201527f4552433732313a20696e76616c696420746f6b656e20494400000000000000006044820152606401610977565b60006001600160a01b038216610fd25760405162461bcd60e51b815260206004820152602960248201527f4552433732313a2061646472657373207a65726f206973206e6f7420612076616044820152683634b21037bbb732b960b91b6064820152608401610977565b506001600160a01b031660009081526004602052604090205490565b610ff6611b3c565b6110006000611bab565b565b7f9f2df0fed2c77648de5860a4cc508cd0818c85b8b8a1ab4ceeef8d981c8956a661102c816114b4565b60005b8251811015610a2a5761106e7f9f2df0fed2c77648de5860a4cc508cd0818c85b8b8a1ab4ceeef8d981c8956a6848381518110610cb057610cb0612a0e565b61107781612a3a565b905061102f565b6000610b037f3c11d16cbaffd01df69ce1c404f6340ee057498f5f00246190ea54220576a848610629611711565b7f8502233096d909befbda0999bb8ea2f3a6be3c138b9fbf003752a4c8bce86f6c6110d6816114b4565b6110e1838386610e4e565b50505050565b600a546001600160a01b031660009081527f5eff886ea0ce6ca488a3d6e336d6c0f75f46d19b42c06ce5ee98e42c96d256c7602052604081205460ff1661112e5750600090565b50600a546001600160a01b031690565b6000611148611711565b6001600160a01b03166111596110e7565b6001600160a01b031614905090565b7f8502233096d909befbda0999bb8ea2f3a6be3c138b9fbf003752a4c8bce86f6c611192816114b4565b610a2a61119d611711565b8385611807565b606060028054610858906129d3565b610ad16111be611711565b8383611bfb565b6111d66111d0611711565b83611789565b6112395760405162461bcd60e51b815260206004820152602e60248201527f4552433732313a2063616c6c6572206973206e6f7420746f6b656e206f776e6560448201526d1c881b9bdc88185c1c1c9bdd995960921b6064820152608401610977565b6110e184848484611cca565b6060611250826116ad565b60008281526007602052604081208054611269906129d3565b80601f0160208091040260200160405190810160405280929190818152602001828054611295906129d3565b80156112e25780601f106112b7576101008083540402835291602001916112e2565b820191906000526020600020905b8154815290600101906020018083116112c557829003601f168201915b50505050509050600061130060408051602081019091526000815290565b9050805160001415611313575092915050565b81511561134557808260405160200161132d929190612a6d565b60405160208183030381529060405292505050919050565b61084184611d48565b600082815260086020526040902060010154611369816114b4565b610a2a8383611a51565b61137b611b3c565b60005b8151811015610ad1576113bd7f3c11d16cbaffd01df69ce1c404f6340ee057498f5f00246190ea54220576a848838381518110610ee657610ee6612a0e565b6113c681612a3a565b905061137e565b6113d5611b3c565b6001600160a01b03811661143a5760405162461bcd60e51b815260206004820152602660248201527f4f776e61626c653a206e6577206f776e657220697320746865207a65726f206160448201526564647265737360d01b6064820152608401610977565b61144381611bab565b50565b60007f00000000000000000000000000000000000000000000000000000000000000006001600160a01b0316331415611486575060131936013560601c90565b503390565b3390565b60006001600160e01b03198216637965db0b60e01b14806107cf57506107cf82611dbc565b611443816114c0611711565b611e0c565b6001600160a01b03821661151b5760405162461bcd60e51b815260206004820181905260248201527f4552433732313a206d696e7420746f20746865207a65726f20616464726573736044820152606401610977565b6000818152600360205260409020546001600160a01b0316156115805760405162461bcd60e51b815260206004820152601c60248201527f4552433732313a20746f6b656e20616c7265616479206d696e746564000000006044820152606401610977565b61158c60008383611e8c565b6001600160a01b03821660009081526004602052604081208054600192906115b5908490612a55565b909155505060008181526003602052604080822080546001600160a01b0319166001600160a01b03861690811790915590518392907fddf252ad1be2c89b69c2b068fc378daa952ba7f163c4a11628f55a4df523b3ef908290a45050565b6000828152600360205260409020546001600160a01b031661168e5760405162461bcd60e51b815260206004820152602e60248201527f45524337323155524953746f726167653a2055524920736574206f66206e6f6e60448201526d32bc34b9ba32b73a103a37b5b2b760911b6064820152608401610977565b60008281526007602090815260409091208251610a2a9284019061245f565b6000818152600360205260409020546001600160a01b03166114435760405162461bcd60e51b815260206004820152601860248201527f4552433732313a20696e76616c696420746f6b656e20494400000000000000006044820152606401610977565b6000610b03611446565b600081815260056020526040902080546001600160a01b0319166001600160a01b038416908117909155819061175082610f03565b6001600160a01b03167f8c5be1e5ebec7d5bd14f71427d1e84f3dd0314c0f7b2291e5b200ac8c7c3b92560405160405180910390a45050565b60008061179583610f03565b9050806001600160a01b0316846001600160a01b031614806117dc57506001600160a01b0380821660009081526006602090815260408083209388168352929052205460ff165b806108415750836001600160a01b03166117f5846108db565b6001600160a01b031614949350505050565b826001600160a01b031661181a82610f03565b6001600160a01b03161461187e5760405162461bcd60e51b815260206004820152602560248201527f4552433732313a207472616e736665722066726f6d20696e636f72726563742060448201526437bbb732b960d91b6064820152608401610977565b6001600160a01b0382166118e05760405162461bcd60e51b8152602060048201526024808201527f4552433732313a207472616e7366657220746f20746865207a65726f206164646044820152637265737360e01b6064820152608401610977565b6118eb838383611e8c565b6118f660008261171b565b6001600160a01b038316600090815260046020526040812080546001929061191f908490612a9c565b90915550506001600160a01b038216600090815260046020526040812080546001929061194d908490612a55565b909155505060008181526003602052604080822080546001600160a01b0319166001600160a01b0386811691821790925591518493918716917fddf252ad1be2c89b69c2b068fc378daa952ba7f163c4a11628f55a4df523b3ef91a4505050565b60008281526008602090815260408083206001600160a01b038516845290915290205460ff16610ad15760008281526008602090815260408083206001600160a01b03851684529091529020805460ff19166001179055611a0d611711565b6001600160a01b0316816001600160a01b0316837f2f8788117e7eff1d82e926ec794901d17c78024a50270940304540a733656f0d60405160405180910390a45050565b60008281526008602090815260408083206001600160a01b038516845290915290205460ff1615610ad15760008281526008602090815260408083206001600160a01b03851684529091529020805460ff19169055611aae611711565b6001600160a01b0316816001600160a01b0316837ff6391f5c32d9c69d2a47ea670b442974b53935d1edc7fd64eb21e047a839171b60405160405180910390a45050565b610ad182826119ae565b611b0581611fc1565b60008181526007602052604090208054611b1e906129d3565b159050611443576000818152600760205260408120611443916124e3565b611b44611711565b6001600160a01b0316611b556110e7565b6001600160a01b0316146110005760405162461bcd60e51b815260206004820181905260248201527f4f776e61626c653a2063616c6c6572206973206e6f7420746865206f776e65726044820152606401610977565b600080546001600160a01b038381166001600160a01b0319831681178455604051919092169283917f8be0079c531659141344cd1fd0a4f28419497f9722a3daafe3b4186f6b6457e09190a35050565b816001600160a01b0316836001600160a01b03161415611c5d5760405162461bcd60e51b815260206004820152601960248201527f4552433732313a20617070726f766520746f2063616c6c6572000000000000006044820152606401610977565b6001600160a01b03838116600081815260066020908152604080832094871680845294825291829020805460ff191686151590811790915591519182527f17307eab39ab6107e8899845ad3d59bd9653f200f220920489ca2b5937696c31910160405180910390a3505050565b611cd5848484611807565b611ce184848484612068565b6110e15760405162461bcd60e51b815260206004820152603260248201527f4552433732313a207472616e7366657220746f206e6f6e20455243373231526560448201527131b2b4bb32b91034b6b83632b6b2b73a32b960711b6064820152608401610977565b6060611d53826116ad565b6000611d6a60408051602081019091526000815290565b90506000815111611d8a5760405180602001604052806000815250611db5565b80611d94846121b8565b604051602001611da5929190612a6d565b6040516020818303038152906040525b9392505050565b60006001600160e01b031982166380ac58cd60e01b1480611ded57506001600160e01b03198216635b5e139f60e01b145b806107cf57506301ffc9a760e01b6001600160e01b03198316146107cf565b60008281526008602090815260408083206001600160a01b038516845290915290205460ff16610ad157611e4a816001600160a01b031660146122b6565b611e558360206122b6565b604051602001611e66929190612ab3565b60408051601f198184030181529082905262461bcd60e51b8252610977916004016126b1565b600080527f85da32aea425a83be1133c4e958580985fa04602ddf03ad35008a70703b20eb76020527fe3eaa97df54d66938ed55b4ec3f8335ad12a29512079af854e696c4d6dedf2745460ff16158015611eee57506001600160a01b03831615155b8015611f0257506001600160a01b03821615155b15610a2a576001600160a01b03831660009081527f85da32aea425a83be1133c4e958580985fa04602ddf03ad35008a70703b20eb7602052604090205460ff1680611f8457506001600160a01b03821660009081527f85da32aea425a83be1133c4e958580985fa04602ddf03ad35008a70703b20eb7602052604090205460ff165b610a2a5760405162461bcd60e51b815260206004820152600e60248201526d215452414e534645525f524f4c4560901b6044820152606401610977565b6000611fcc82610f03565b9050611fda81600084611e8c565b611fe560008361171b565b6001600160a01b038116600090815260046020526040812080546001929061200e908490612a9c565b909155505060008281526003602052604080822080546001600160a01b0319169055518391906001600160a01b038416907fddf252ad1be2c89b69c2b068fc378daa952ba7f163c4a11628f55a4df523b3ef908390a45050565b60006001600160a01b0384163b156121ad57836001600160a01b031663150b7a02612091611711565b8786866040518563ffffffff1660e01b81526004016120b39493929190612b34565b6020604051808303816000875af19250505080156120ee575060408051601f3d908101601f191682019092526120eb91810190612b70565b60015b612193573d80801561211c576040519150601f19603f3d011682016040523d82523d6000602084013e612121565b606091505b50805161218b5760405162461bcd60e51b815260206004820152603260248201527f4552433732313a207472616e7366657220746f206e6f6e20455243373231526560448201527131b2b4bb32b91034b6b83632b6b2b73a32b960711b6064820152608401610977565b805181602001fd5b6001600160e01b031916630a85bd0160e11b149050610841565b506001949350505050565b6060816121dc5750506040805180820190915260018152600360fc1b602082015290565b8160005b811561220657806121f081612a3a565b91506121ff9050600a83612ba3565b91506121e0565b60008167ffffffffffffffff81111561222157612221612561565b6040519080825280601f01601f19166020018201604052801561224b576020820181803683370190505b5090505b841561084157612260600183612a9c565b915061226d600a86612bb7565b612278906030612a55565b60f81b81838151811061228d5761228d612a0e565b60200101906001600160f81b031916908160001a9053506122af600a86612ba3565b945061224f565b606060006122c5836002612bcb565b6122d0906002612a55565b67ffffffffffffffff8111156122e8576122e8612561565b6040519080825280601f01601f191660200182016040528015612312576020820181803683370190505b509050600360fc1b8160008151811061232d5761232d612a0e565b60200101906001600160f81b031916908160001a905350600f60fb1b8160018151811061235c5761235c612a0e565b60200101906001600160f81b031916908160001a9053506000612380846002612bcb565b61238b906001612a55565b90505b6001811115612410577f303132333435363738396162636465660000000000000000000000000000000085600f16601081106123cc576123cc612a0e565b1a60f81b8282815181106123e2576123e2612a0e565b60200101906001600160f81b031916908160001a90535060049490941c9361240981612bea565b905061238e565b508315611db55760405162461bcd60e51b815260206004820181905260248201527f537472696e67733a20686578206c656e67746820696e73756666696369656e746044820152606401610977565b82805461246b906129d3565b90600052602060002090601f01602090048101928261248d57600085556124d3565b82601f106124a657805160ff19168380011785556124d3565b828001600101855582156124d3579182015b828111156124d35782518255916020019190600101906124b8565b506124df929150612519565b5090565b5080546124ef906129d3565b6000825580601f106124ff575050565b601f01602090049060005260206000209081019061144391905b5b808211156124df576000815560010161251a565b6001600160e01b03198116811461144357600080fd5b60006020828403121561255657600080fd5b8135611db58161252e565b634e487b7160e01b600052604160045260246000fd5b604051601f8201601f1916810167ffffffffffffffff811182821017156125a0576125a0612561565b604052919050565b600067ffffffffffffffff8311156125c2576125c2612561565b6125d5601f8401601f1916602001612577565b90508281528383830111156125e957600080fd5b828260208301376000602084830101529392505050565b6000806040838503121561261357600080fd5b823567ffffffffffffffff81111561262a57600080fd5b8301601f8101851361263b57600080fd5b61264a858235602084016125a8565b95602094909401359450505050565b60005b8381101561267457818101518382015260200161265c565b838111156110e15750506000910152565b6000815180845261269d816020860160208601612659565b601f01601f19169290920160200192915050565b602081526000611db56020830184612685565b6000602082840312156126d657600080fd5b5035919050565b80356001600160a01b03811681146126f457600080fd5b919050565b6000806040838503121561270c57600080fd5b612715836126dd565b946020939093013593505050565b60006020828403121561273557600080fd5b611db5826126dd565b60008060006060848603121561275357600080fd5b61275c846126dd565b925061276a602085016126dd565b9150604084013590509250925092565b6000806040838503121561278d57600080fd5b8235915061279d602084016126dd565b90509250929050565b600060208083850312156127b957600080fd5b823567ffffffffffffffff808211156127d157600080fd5b818501915085601f8301126127e557600080fd5b8135818111156127f7576127f7612561565b8060051b9150612808848301612577565b818152918301840191848101908884111561282257600080fd5b938501935b8385101561284757612838856126dd565b82529385019390850190612827565b98975050505050505050565b602080825282518282018190526000919060409081850190868401855b828110156128a857815180518552868101516001600160a01b0316878601528501518585015260609093019290850190600101612870565b5091979650505050505050565b6000806000606084860312156128ca57600080fd5b833592506128da602085016126dd565b91506128e8604085016126dd565b90509250925092565b6000806040838503121561290457600080fd5b61290d836126dd565b91506020830135801515811461292257600080fd5b809150509250929050565b6000806000806080858703121561294357600080fd5b61294c856126dd565b935061295a602086016126dd565b925060408501359150606085013567ffffffffffffffff81111561297d57600080fd5b8501601f8101871361298e57600080fd5b61299d878235602084016125a8565b91505092959194509250565b600080604083850312156129bc57600080fd5b6129c5836126dd565b915061279d602084016126dd565b600181811c908216806129e757607f821691505b60208210811415612a0857634e487b7160e01b600052602260045260246000fd5b50919050565b634e487b7160e01b600052603260045260246000fd5b634e487b7160e01b600052601160045260246000fd5b6000600019821415612a4e57612a4e612a24565b5060010190565b60008219821115612a6857612a68612a24565b500190565b60008351612a7f818460208801612659565b835190830190612a93818360208801612659565b01949350505050565b600082821015612aae57612aae612a24565b500390565b7f416363657373436f6e74726f6c3a206163636f756e7420000000000000000000815260008351612aeb816017850160208801612659565b7f206973206d697373696e6720726f6c65200000000000000000000000000000006017918401918201528351612b28816028840160208801612659565b01602801949350505050565b60006001600160a01b03808716835280861660208401525083604083015260806060830152612b666080830184612685565b9695505050505050565b600060208284031215612b8257600080fd5b8151611db58161252e565b634e487b7160e01b600052601260045260246000fd5b600082612bb257612bb2612b8d565b500490565b600082612bc657612bc6612b8d565b500690565b6000816000190483118215151615612be557612be5612a24565b500290565b600081612bf957612bf9612a24565b50600019019056fea2646970667358221220c03b0c865e5bbeb7d883b682a4b6b2f5b749a6365257cb69c8ef7a1d0f9b837764736f6c634300080c00338502233096d909befbda0999bb8ea2f3a6be3c138b9fbf003752a4c8bce86f6c9f2df0fed2c77648de5860a4cc508cd0818c85b8b8a1ab4ceeef8d981c8956a6",
  "linkReferences": {},
  "deployedLinkReferences": {}
}