{
  "_format": "hh-sol-artifact-1",
  "contractName": "TWFactory",
  "sourceName": "contracts/tw/TWFactory.sol",
  "abi": [
    {
      "inputs": [
        {
          "internalType": "address",
          "name": "_trustedForwarder",
          "type": "address"
        },
        {
          "internalType": "address",
          "name": "_registry",
          "type": "address"
        }
      ],
      "stateMutability": "nonpayable",
      "type": "constructor"
    },
    {
      "anonymous": false,
      "inputs": [
        {
          "indexed": false,
          "internalType": "address",
          "name": "implementation",
          "type": "address"
        },
        {
          "indexed": true,
          "internalType": "bytes32",
          "name": "contractType",
          "type": "bytes32"
        },
        {
          "indexed": false,
          "internalType": "uint256",
          "name": "version",
          "type": "uint256"
        }
      ],
      "name": "ImplementationAdded",
      "type": "event"
    },
    {
      "anonymous": false,
      "inputs": [
        {
          "indexed": false,
          "internalType": "address",
          "name": "implementation",
          "type": "address"
        },
        {
          "indexed": false,
          "internalType": "bool",
          "name": "isApproved",
          "type": "bool"
        }
      ],
      "name": "ImplementationApproved",
      "type": "event"
    },
    {
      "anonymous": false,
      "inputs": [
        {
          "indexed": true,
          "internalType": "address",
          "name": "implementation",
          "type": "address"
        },
        {
          "indexed": false,
          "internalType": "address",
          "name": "proxy",
          "type": "address"
        },
        {
          "indexed": true,
          "internalType": "address",
          "name": "deployer",
          "type": "address"
        }
      ],
      "name": "ProxyDeployed",
      "type": "event"
    },
    {
      "anonymous": false,
      "inputs": [
        {
          "indexed": true,
          "internalType": "bytes32",
          "name": "role",
          "type": "bytes32"
        },
        {
          "indexed": true,
          "internalType": "bytes32",
          "name": "previousAdminRole",
          "type": "bytes32"
        },
        {
          "indexed": true,
          "internalType": "bytes32",
          "name": "newAdminRole",
          "type": "bytes32"
        }
      ],
      "name": "RoleAdminChanged",
      "type": "event"
    },
    {
      "anonymous": false,
      "inputs": [
        {
          "indexed": true,
          "internalType": "bytes32",
          "name": "role",
          "type": "bytes32"
        },
        {
          "indexed": true,
          "internalType": "address",
          "name": "account",
          "type": "address"
        },
        {
          "indexed": true,
          "internalType": "address",
          "name": "sender",
          "type": "address"
        }
      ],
      "name": "RoleGranted",
      "type": "event"
    },
    {
      "anonymous": false,
      "inputs": [
        {
          "indexed": true,
          "internalType": "bytes32",
          "name": "role",
          "type": "bytes32"
        },
        {
          "indexed": true,
          "internalType": "address",
          "name": "account",
          "type": "address"
        },
        {
          "indexed": true,
          "internalType": "address",
          "name": "sender",
          "type": "address"
        }
      ],
      "name": "RoleRevoked",
      "type": "event"
    },
    {
      "inputs": [],
      "name": "DEFAULT_ADMIN_ROLE",
      "outputs": [
        {
          "internalType": "bytes32",
          "name": "",
          "type": "bytes32"
        }
      ],
      "stateMutability": "view",
      "type": "function"
    },
    {
      "inputs": [],
      "name": "FACTORY_ROLE",
      "outputs": [
        {
          "internalType": "bytes32",
          "name": "",
          "type": "bytes32"
        }
      ],
      "stateMutability": "view",
      "type": "function"
    },
    {
      "inputs": [
        {
          "internalType": "address",
          "name": "_implementation",
          "type": "address"
        }
      ],
      "name": "addImplementation",
      "outputs": [],
      "stateMutability": "nonpayable",
      "type": "function"
    },
    {
      "inputs": [
        {
          "internalType": "address",
          "name": "",
          "type": "address"
        }
      ],
      "name": "approval",
      "outputs": [
        {
          "internalType": "bool",
          "name": "",
          "type": "bool"
        }
      ],
      "stateMutability": "view",
      "type": "function"
    },
    {
      "inputs": [
        {
          "internalType": "address",
          "name": "_implementation",
          "type": "address"
        },
        {
          "internalType": "bool",
          "name": "_toApprove",
          "type": "bool"
        }
      ],
      "name": "approveImplementation",
      "outputs": [],
      "stateMutability": "nonpayable",
      "type": "function"
    },
    {
      "inputs": [
        {
          "internalType": "bytes32",
          "name": "",
          "type": "bytes32"
        }
      ],
      "name": "currentVersion",
      "outputs": [
        {
          "internalType": "uint256",
          "name": "",
          "type": "uint256"
        }
      ],
      "stateMutability": "view",
      "type": "function"
    },
    {
      "inputs": [
        {
          "internalType": "bytes32",
          "name": "_type",
          "type": "bytes32"
        },
        {
          "internalType": "bytes",
          "name": "_data",
          "type": "bytes"
        }
      ],
      "name": "deployProxy",
      "outputs": [
        {
          "internalType": "address",
          "name": "",
          "type": "address"
        }
      ],
      "stateMutability": "nonpayable",
      "type": "function"
    },
    {
      "inputs": [
        {
          "internalType": "address",
          "name": "_implementation",
          "type": "address"
        },
        {
          "internalType": "bytes",
          "name": "_data",
          "type": "bytes"
        },
        {
          "internalType": "bytes32",
          "name": "_salt",
          "type": "bytes32"
        }
      ],
      "name": "deployProxyByImplementation",
      "outputs": [
        {
          "internalType": "address",
          "name": "deployedProxy",
          "type": "address"
        }
      ],
      "stateMutability": "nonpayable",
      "type": "function"
    },
    {
      "inputs": [
        {
          "internalType": "bytes32",
          "name": "_type",
          "type": "bytes32"
        },
        {
          "internalType": "bytes",
          "name": "_data",
          "type": "bytes"
        },
        {
          "internalType": "bytes32",
          "name": "_salt",
          "type": "bytes32"
        }
      ],
      "name": "deployProxyDeterministic",
      "outputs": [
        {
          "internalType": "address",
          "name": "",
          "type": "address"
        }
      ],
      "stateMutability": "nonpayable",
      "type": "function"
    },
    {
      "inputs": [
        {
          "internalType": "address",
          "name": "",
          "type": "address"
        }
      ],
      "name": "deployer",
      "outputs": [
        {
          "internalType": "address",
          "name": "",
          "type": "address"
        }
      ],
      "stateMutability": "view",
      "type": "function"
    },
    {
      "inputs": [
        {
          "internalType": "bytes32",
          "name": "_type",
          "type": "bytes32"
        },
        {
          "internalType": "uint256",
          "name": "_version",
          "type": "uint256"
        }
      ],
      "name": "getImplementation",
      "outputs": [
        {
          "internalType": "address",
          "name": "",
          "type": "address"
        }
      ],
      "stateMutability": "view",
      "type": "function"
    },
    {
      "inputs": [
        {
          "internalType": "bytes32",
          "name": "_type",
          "type": "bytes32"
        }
      ],
      "name": "getLatestImplementation",
      "outputs": [
        {
          "internalType": "address",
          "name": "",
          "type": "address"
        }
      ],
      "stateMutability": "view",
      "type": "function"
    },
    {
      "inputs": [
        {
          "internalType": "bytes32",
          "name": "role",
          "type": "bytes32"
        }
      ],
      "name": "getRoleAdmin",
      "outputs": [
        {
          "internalType": "bytes32",
          "name": "",
          "type": "bytes32"
        }
      ],
      "stateMutability": "view",
      "type": "function"
    },
    {
      "inputs": [
        {
          "internalType": "bytes32",
          "name": "role",
          "type": "bytes32"
        },
        {
          "internalType": "uint256",
          "name": "index",
          "type": "uint256"
        }
      ],
      "name": "getRoleMember",
      "outputs": [
        {
          "internalType": "address",
          "name": "",
          "type": "address"
        }
      ],
      "stateMutability": "view",
      "type": "function"
    },
    {
      "inputs": [
        {
          "internalType": "bytes32",
          "name": "role",
          "type": "bytes32"
        }
      ],
      "name": "getRoleMemberCount",
      "outputs": [
        {
          "internalType": "uint256",
          "name": "",
          "type": "uint256"
        }
      ],
      "stateMutability": "view",
      "type": "function"
    },
    {
      "inputs": [
        {
          "internalType": "bytes32",
          "name": "role",
          "type": "bytes32"
        },
        {
          "internalType": "address",
          "name": "account",
          "type": "address"
        }
      ],
      "name": "grantRole",
      "outputs": [],
      "stateMutability": "nonpayable",
      "type": "function"
    },
    {
      "inputs": [
        {
          "internalType": "bytes32",
          "name": "role",
          "type": "bytes32"
        },
        {
          "internalType": "address",
          "name": "account",
          "type": "address"
        }
      ],
      "name": "hasRole",
      "outputs": [
        {
          "internalType": "bool",
          "name": "",
          "type": "bool"
        }
      ],
      "stateMutability": "view",
      "type": "function"
    },
    {
      "inputs": [
        {
          "internalType": "bytes32",
          "name": "",
          "type": "bytes32"
        },
        {
          "internalType": "uint256",
          "name": "",
          "type": "uint256"
        }
      ],
      "name": "implementation",
      "outputs": [
        {
          "internalType": "address",
          "name": "",
          "type": "address"
        }
      ],
      "stateMutability": "view",
      "type": "function"
    },
    {
      "inputs": [
        {
          "internalType": "address",
          "name": "forwarder",
          "type": "address"
        }
      ],
      "name": "isTrustedForwarder",
      "outputs": [
        {
          "internalType": "bool",
          "name": "",
          "type": "bool"
        }
      ],
      "stateMutability": "view",
      "type": "function"
    },
    {
      "inputs": [
        {
          "internalType": "bytes[]",
          "name": "data",
          "type": "bytes[]"
        }
      ],
      "name": "multicall",
      "outputs": [
        {
          "internalType": "bytes[]",
          "name": "results",
          "type": "bytes[]"
        }
      ],
      "stateMutability": "nonpayable",
      "type": "function"
    },
    {
      "inputs": [],
      "name": "registry",
      "outputs": [
        {
          "internalType": "contract TWRegistry",
          "name": "",
          "type": "address"
        }
      ],
      "stateMutability": "view",
      "type": "function"
    },
    {
      "inputs": [
        {
          "internalType": "bytes32",
          "name": "role",
          "type": "bytes32"
        },
        {
          "internalType": "address",
          "name": "account",
          "type": "address"
        }
      ],
      "name": "renounceRole",
      "outputs": [],
      "stateMutability": "nonpayable",
      "type": "function"
    },
    {
      "inputs": [
        {
          "internalType": "bytes32",
          "name": "role",
          "type": "bytes32"
        },
        {
          "internalType": "address",
          "name": "account",
          "type": "address"
        }
      ],
      "name": "revokeRole",
      "outputs": [],
      "stateMutability": "nonpayable",
      "type": "function"
    },
    {
      "inputs": [
        {
          "internalType": "bytes4",
          "name": "interfaceId",
          "type": "bytes4"
        }
      ],
      "name": "supportsInterface",
      "outputs": [
        {
          "internalType": "bool",
          "name": "",
          "type": "bool"
        }
      ],
      "stateMutability": "view",
      "type": "function"
    }
  ],
  "bytecode": "0x60c06040523480156200001157600080fd5b506040516200203f3803806200203f833981016040819052620000349162000276565b6001600160a01b0382166080526200005760006200005162000099565b620000b5565b620000867fdfbefbf47cfe66b701d8cfdbce1de81c821590819cb07e71cb01b6602fb0ee276200005162000099565b6001600160a01b031660a05250620002ae565b6000620000b0620000c560201b62000d441760201c565b905090565b620000c18282620000fe565b5050565b6080516000906001600160a01b0316331415620000e9575060131936013560601c90565b620000b06200014160201b62000d8e1760201c565b6200011582826200014560201b62000d921760201c565b60008281526001602090815260409091206200013c91839062000e31620001e7821b17901c565b505050565b3390565b6000828152602081815260408083206001600160a01b038516845290915290205460ff16620000c1576000828152602081815260408083206001600160a01b03851684529091529020805460ff19166001179055620001a362000099565b6001600160a01b0316816001600160a01b0316837f2f8788117e7eff1d82e926ec794901d17c78024a50270940304540a733656f0d60405160405180910390a45050565b6000620001fe836001600160a01b03841662000207565b90505b92915050565b6000818152600183016020526040812054620002505750815460018181018455600084815260208082209093018490558454848252828601909352604090209190915562000201565b50600062000201565b80516001600160a01b03811681146200027157600080fd5b919050565b600080604083850312156200028a57600080fd5b620002958362000259565b9150620002a56020840162000259565b90509250929050565b60805160a051611d56620002e960003960008181610336015281816106800152610c920152600081816103010152610d480152611d566000f3fe608060405234801561001057600080fd5b50600436106101985760003560e01c80639010d07c116100e3578063c6e2a4001161008c578063dd47595a11610066578063dd47595a1461044f578063e92016a414610483578063ec54d72f146104b757600080fd5b8063c6e2a40014610416578063ca15c87314610429578063d547741f1461043c57600080fd5b8063a217fddf116100bd578063a217fddf146103c5578063ac9650d8146103cd578063b9caf9d9146103ed57600080fd5b80639010d07c1461035857806391d148541461036b5780639430b496146103a257600080fd5b806336568abe1161014557806356fb09581161011f57806356fb0958146102de578063572b6c05146102f15780637b1039991461033157600080fd5b806336568abe146102705780633b426d3f1461028357806344ab6680146102a357600080fd5b80631e5e1e99116101765780631e5e1e9914610225578063248a9ca3146102385780632f2ff15d1461025b57600080fd5b806301ffc9a71461019d57806304a0fb17146101c557806311b804ab146101fa575b600080fd5b6101b06101ab366004611727565b6104ca565b60405190151581526020015b60405180910390f35b6101ec7fdfbefbf47cfe66b701d8cfdbce1de81c821590819cb07e71cb01b6602fb0ee2781565b6040519081526020016101bc565b61020d610208366004611810565b6104f5565b6040516001600160a01b0390911681526020016101bc565b61020d610233366004611867565b610735565b6101ec61024636600461189a565b60009081526020819052604090206001015490565b61026e6102693660046118b3565b610773565b005b61026e61027e3660046118b3565b61079d565b6101ec61029136600461189a565b60036020526000908152604090205481565b61020d6102b136600461189a565b6000908152600460209081526040808320600383528184205484529091529020546001600160a01b031690565b61026e6102ec3660046118df565b610839565b6101b06102ff36600461191b565b7f00000000000000000000000000000000000000000000000000000000000000006001600160a01b0390811691161490565b61020d7f000000000000000000000000000000000000000000000000000000000000000081565b61020d610366366004611936565b610901565b6101b06103793660046118b3565b6000918252602082815260408084206001600160a01b0393909316845291905290205460ff1690565b6101b06103b036600461191b565b60026020526000908152604090205460ff1681565b6101ec600081565b6103e06103db366004611958565b610919565b6040516101bc9190611a29565b61020d6103fb36600461191b565b6005602052600090815260409020546001600160a01b031681565b61026e61042436600461191b565b610a0e565b6101ec61043736600461189a565b610c51565b61026e61044a3660046118b3565b610c68565b61020d61045d366004611936565b60009182526004602090815260408084209284529190529020546001600160a01b031690565b61020d610491366004611936565b60046020908152600092835260408084209091529082529020546001600160a01b031681565b61020d6104c5366004611a8b565b610c8d565b60006001600160e01b03198216635a05180f60e01b14806104ef57506104ef82610e46565b92915050565b6001600160a01b03831660009081526002602052604081205460ff166105625760405162461bcd60e51b815260206004820152601b60248201527f696d706c656d656e746174696f6e206e6f7420617070726f766564000000000060448201526064015b60405180910390fd5b600061056c610e7b565b8360405160200161059b92919060609290921b6bffffffffffffffffffffffff19168252601482015260340190565b6040516020818303038152906040528051906020012090506105bd8582610e85565b91506105ee6040518060400160405280600d81526020016c6465706c6f79656450726f787960981b81525083610f3c565b6105f6610e7b565b6001600160a01b038381166000908152600560205260409020805473ffffffffffffffffffffffffffffffffffffffff19169290911691909117905561063a610e7b565b6040516001600160a01b038481168252918216918716907f9e0862c4ebff2150fbbfd3f8547483f55bdec0c34fd977d3fccaa55d6c4ce7849060200160405180910390a37f00000000000000000000000000000000000000000000000000000000000000006001600160a01b03166352c28fab6106b5610e7b565b6040516001600160e01b031960e084901b1681526001600160a01b0391821660048201529085166024820152604401600060405180830381600087803b1580156106fe57600080fd5b505af1158015610712573d6000803e3d6000fd5b5050505060008451111561072c5761072a8285610f96565b505b505b9392505050565b6000838152600460209081526040808320600383528184205484529091528120546001600160a01b031661076a8185856104f5565b95945050505050565b60008281526020819052604090206001015461078e81610fd8565b6107988383610fec565b505050565b6107a5610e7b565b6001600160a01b0316816001600160a01b03161461082b5760405162461bcd60e51b815260206004820152602f60248201527f416363657373436f6e74726f6c3a2063616e206f6e6c792072656e6f756e636560448201527f20726f6c657320666f722073656c6600000000000000000000000000000000006064820152608401610559565b610835828261100e565b5050565b6108657fdfbefbf47cfe66b701d8cfdbce1de81c821590819cb07e71cb01b6602fb0ee27610379610e7b565b61089e5760405162461bcd60e51b815260206004820152600a6024820152693737ba1030b236b4b71760b11b6044820152606401610559565b6001600160a01b038216600081815260026020908152604091829020805460ff19168515159081179091558251938452908301527f46c2f0868ef35772e9324a42eb6fa484490cca8494538a909cf05c897d7d4108910160405180910390a15050565b600082815260016020526040812061072e9083611030565b60608167ffffffffffffffff8111156109345761093461176d565b60405190808252806020026020018201604052801561096757816020015b60608152602001906001900390816109525790505b50905060005b82811015610a07576109d73085858481811061098b5761098b611ad2565b905060200281019061099d9190611ae8565b8080601f01602080910402602001604051908101604052809392919081815260200183838082843760009201919091525061103c92505050565b8282815181106109e9576109e9611ad2565b602002602001018190525080806109ff90611b4c565b91505061096d565b5092915050565b610a3a7fdfbefbf47cfe66b701d8cfdbce1de81c821590819cb07e71cb01b6602fb0ee27610379610e7b565b610a735760405162461bcd60e51b815260206004820152600a6024820152693737ba1030b236b4b71760b11b6044820152606401610559565b60008190506000816001600160a01b031663cb2ef6f76040518163ffffffff1660e01b8152600401602060405180830381865afa158015610ab8573d6000803e3d6000fd5b505050506040513d601f19601f82011682018060405250810190610adc9190611b67565b90506000826001600160a01b031663a0a8e4606040518163ffffffff1660e01b8152600401602060405180830381865afa158015610b1e573d6000803e3d6000fd5b505050506040513d601f19601f82011682018060405250810190610b429190611b80565b60008381526003602052604090205490915060ff8082169083161015610baa5760405162461bcd60e51b815260206004820152601460248201527f77726f6e67206d6f64756c652076657273696f6e0000000000000000000000006044820152606401610559565b600083815260036020908152604080832060ff861690819055600483528184208185528352818420805473ffffffffffffffffffffffffffffffffffffffff19166001600160a01b038b169081179091558085526002845293829020805460ff1916600117905581519384529183019190915284917fc39db2d47bafbb20367a9c840abffa57a2bc243c1f1e67c939ea0e89e59ed01a910160405180910390a25050505050565b60008181526001602052604081206104ef90611061565b600082815260208190526040902060010154610c8381610fd8565b610798838361100e565b6000807f00000000000000000000000000000000000000000000000000000000000000006001600160a01b03166305d85eda610cc7610e7b565b6040516001600160e01b031960e084901b1681526001600160a01b039091166004820152602401602060405180830381865afa158015610d0b573d6000803e3d6000fd5b505050506040513d601f19601f82011682018060405250810190610d2f9190611b67565b9050610d3c848483610735565b949350505050565b60007f00000000000000000000000000000000000000000000000000000000000000006001600160a01b0316331415610d84575060131936013560601c90565b503390565b905090565b3390565b6000828152602081815260408083206001600160a01b038516845290915290205460ff16610835576000828152602081815260408083206001600160a01b03851684529091529020805460ff19166001179055610ded610e7b565b6001600160a01b0316816001600160a01b0316837f2f8788117e7eff1d82e926ec794901d17c78024a50270940304540a733656f0d60405160405180910390a45050565b600061072e836001600160a01b03841661106b565b60006001600160e01b03198216637965db0b60e01b14806104ef57506301ffc9a760e01b6001600160e01b03198316146104ef565b6000610d89610d44565b60006040517f3d602d80600a3d3981f3363d3d373d3d3d363d7300000000000000000000000081528360601b60148201527f5af43d82803e903d91602b57fd5bf300000000000000000000000000000000006028820152826037826000f59150506001600160a01b0381166104ef5760405162461bcd60e51b815260206004820152601760248201527f455243313136373a2063726561746532206661696c65640000000000000000006044820152606401610559565b6108358282604051602401610f52929190611ba3565b60408051601f198184030181529190526020810180517bffffffffffffffffffffffffffffffffffffffffffffffffffffffff1663319af33360e01b1790526110ba565b606061072e83836040518060400160405280601e81526020017f416464726573733a206c6f772d6c6576656c2063616c6c206661696c656400008152506110db565b610fe981610fe4610e7b565b6110ea565b50565b610ff68282610d92565b60008281526001602052604090206107989082610e31565b6110188282611168565b60008281526001602052604090206107989082611205565b600061072e838361121a565b606061072e8383604051806060016040528060278152602001611cfa60279139611244565b60006104ef825490565b60008181526001830160205260408120546110b2575081546001818101845560008481526020808220909301849055845484825282860190935260409020919091556104ef565b5060006104ef565b80516a636f6e736f6c652e6c6f67602083016000808483855afa5050505050565b6060610d3c8484600085611321565b6000828152602081815260408083206001600160a01b038516845290915290205460ff1661083557611126816001600160a01b03166014611452565b611131836020611452565b604051602001611142929190611bce565b60408051601f198184030181529082905262461bcd60e51b825261055991600401611c4f565b6000828152602081815260408083206001600160a01b038516845290915290205460ff1615610835576000828152602081815260408083206001600160a01b03851684529091529020805460ff191690556111c1610e7b565b6001600160a01b0316816001600160a01b0316837ff6391f5c32d9c69d2a47ea670b442974b53935d1edc7fd64eb21e047a839171b60405160405180910390a45050565b600061072e836001600160a01b0384166115fb565b600082600001828154811061123157611231611ad2565b9060005260206000200154905092915050565b60606001600160a01b0384163b6112ac5760405162461bcd60e51b815260206004820152602660248201527f416464726573733a2064656c65676174652063616c6c20746f206e6f6e2d636f6044820152651b9d1c9858dd60d21b6064820152608401610559565b600080856001600160a01b0316856040516112c79190611c62565b600060405180830381855af49150503d8060008114611302576040519150601f19603f3d011682016040523d82523d6000602084013e611307565b606091505b50915091506113178282866116ee565b9695505050505050565b6060824710156113825760405162461bcd60e51b815260206004820152602660248201527f416464726573733a20696e73756666696369656e742062616c616e636520666f6044820152651c8818d85b1b60d21b6064820152608401610559565b6001600160a01b0385163b6113d95760405162461bcd60e51b815260206004820152601d60248201527f416464726573733a2063616c6c20746f206e6f6e2d636f6e74726163740000006044820152606401610559565b600080866001600160a01b031685876040516113f59190611c62565b60006040518083038185875af1925050503d8060008114611432576040519150601f19603f3d011682016040523d82523d6000602084013e611437565b606091505b50915091506114478282866116ee565b979650505050505050565b60606000611461836002611c7e565b61146c906002611c9d565b67ffffffffffffffff8111156114845761148461176d565b6040519080825280601f01601f1916602001820160405280156114ae576020820181803683370190505b509050600360fc1b816000815181106114c9576114c9611ad2565b60200101906001600160f81b031916908160001a905350600f60fb1b816001815181106114f8576114f8611ad2565b60200101906001600160f81b031916908160001a905350600061151c846002611c7e565b611527906001611c9d565b90505b60018111156115ac577f303132333435363738396162636465660000000000000000000000000000000085600f166010811061156857611568611ad2565b1a60f81b82828151811061157e5761157e611ad2565b60200101906001600160f81b031916908160001a90535060049490941c936115a581611cb5565b905061152a565b50831561072e5760405162461bcd60e51b815260206004820181905260248201527f537472696e67733a20686578206c656e67746820696e73756666696369656e746044820152606401610559565b600081815260018301602052604081205480156116e457600061161f600183611ccc565b855490915060009061163390600190611ccc565b905081811461169857600086600001828154811061165357611653611ad2565b906000526020600020015490508087600001848154811061167657611676611ad2565b6000918252602080832090910192909255918252600188019052604090208390555b85548690806116a9576116a9611ce3565b6001900381819060005260206000200160009055905585600101600086815260200190815260200160002060009055600193505050506104ef565b60009150506104ef565b606083156116fd57508161072e565b82511561170d5782518084602001fd5b8160405162461bcd60e51b81526004016105599190611c4f565b60006020828403121561173957600080fd5b81356001600160e01b03198116811461072e57600080fd5b80356001600160a01b038116811461176857600080fd5b919050565b634e487b7160e01b600052604160045260246000fd5b600082601f83011261179457600080fd5b813567ffffffffffffffff808211156117af576117af61176d565b604051601f8301601f19908116603f011681019082821181831017156117d7576117d761176d565b816040528381528660208588010111156117f057600080fd5b836020870160208301376000602085830101528094505050505092915050565b60008060006060848603121561182557600080fd5b61182e84611751565b9250602084013567ffffffffffffffff81111561184a57600080fd5b61185686828701611783565b925050604084013590509250925092565b60008060006060848603121561187c57600080fd5b83359250602084013567ffffffffffffffff81111561184a57600080fd5b6000602082840312156118ac57600080fd5b5035919050565b600080604083850312156118c657600080fd5b823591506118d660208401611751565b90509250929050565b600080604083850312156118f257600080fd5b6118fb83611751565b91506020830135801515811461191057600080fd5b809150509250929050565b60006020828403121561192d57600080fd5b61072e82611751565b6000806040838503121561194957600080fd5b50508035926020909101359150565b6000806020838503121561196b57600080fd5b823567ffffffffffffffff8082111561198357600080fd5b818501915085601f83011261199757600080fd5b8135818111156119a657600080fd5b8660208260051b85010111156119bb57600080fd5b60209290920196919550909350505050565b60005b838110156119e85781810151838201526020016119d0565b838111156119f7576000848401525b50505050565b60008151808452611a158160208601602086016119cd565b601f01601f19169290920160200192915050565b6000602080830181845280855180835260408601915060408160051b870101925083870160005b82811015611a7e57603f19888603018452611a6c8583516119fd565b94509285019290850190600101611a50565b5092979650505050505050565b60008060408385031215611a9e57600080fd5b82359150602083013567ffffffffffffffff811115611abc57600080fd5b611ac885828601611783565b9150509250929050565b634e487b7160e01b600052603260045260246000fd5b6000808335601e19843603018112611aff57600080fd5b83018035915067ffffffffffffffff821115611b1a57600080fd5b602001915036819003821315611b2f57600080fd5b9250929050565b634e487b7160e01b600052601160045260246000fd5b6000600019821415611b6057611b60611b36565b5060010190565b600060208284031215611b7957600080fd5b5051919050565b600060208284031215611b9257600080fd5b815160ff8116811461072e57600080fd5b604081526000611bb660408301856119fd565b90506001600160a01b03831660208301529392505050565b7f416363657373436f6e74726f6c3a206163636f756e7420000000000000000000815260008351611c068160178501602088016119cd565b7f206973206d697373696e6720726f6c65200000000000000000000000000000006017918401918201528351611c438160288401602088016119cd565b01602801949350505050565b60208152600061072e60208301846119fd565b60008251611c748184602087016119cd565b9190910192915050565b6000816000190483118215151615611c9857611c98611b36565b500290565b60008219821115611cb057611cb0611b36565b500190565b600081611cc457611cc4611b36565b506000190190565b600082821015611cde57611cde611b36565b500390565b634e487b7160e01b600052603160045260246000fdfe416464726573733a206c6f772d6c6576656c2064656c65676174652063616c6c206661696c6564a26469706673582212208971a55383bc4ac0f7c2e5e4e75204fcec6097cf5b0d6626b568c49d5919d64b64736f6c634300080c0033",
  "linkReferences": {},
  "deployedLinkReferences": {}
}